{
  "address": "0x102a70bDA2C833b3483A2eE55C14c7ea0fb7A01B",
  "abi": [
    {
      "inputs": [
        {
          "internalType": "address payable",
          "name": "feeReceiver_",
          "type": "address"
        }
      ],
      "stateMutability": "nonpayable",
      "type": "constructor"
    },
    {
      "inputs": [
        {
          "internalType": "uint40",
          "name": "id",
          "type": "uint40"
        },
        {
          "internalType": "address",
          "name": "caller",
          "type": "address"
        }
      ],
      "name": "CallerIsNotLocker",
      "type": "error"
    },
    {
      "inputs": [
        {
          "internalType": "address",
          "name": "caller",
          "type": "address"
        }
      ],
      "name": "CallerNotOwner",
      "type": "error"
    },
    {
      "inputs": [],
      "name": "CreationDisabled",
      "type": "error"
    },
    {
      "inputs": [],
      "name": "EthTransferFailed",
      "type": "error"
    },
    {
      "inputs": [],
      "name": "ExemptAccountsPayNoEth",
      "type": "error"
    },
    {
      "inputs": [
        {
          "internalType": "uint256",
          "name": "expected",
          "type": "uint256"
        },
        {
          "internalType": "uint256",
          "name": "received",
          "type": "uint256"
        }
      ],
      "name": "IncorrectEthFee",
      "type": "error"
    },
    {
      "inputs": [],
      "name": "InvalidPositionManagerKind",
      "type": "error"
    },
    {
      "inputs": [],
      "name": "InvalidVestingSchedule",
      "type": "error"
    },
    {
      "inputs": [
        {
          "internalType": "address",
          "name": "positionManager",
          "type": "address"
        }
      ],
      "name": "PositionManagerNotAllowed",
      "type": "error"
    },
    {
      "inputs": [],
      "name": "ReentrancyGuardReentrantCall",
      "type": "error"
    },
    {
      "inputs": [
        {
          "internalType": "address",
          "name": "token",
          "type": "address"
        }
      ],
      "name": "SafeERC20FailedOperation",
      "type": "error"
    },
    {
      "inputs": [
        {
          "internalType": "uint16",
          "name": "liveTokenFeeBps",
          "type": "uint16"
        },
        {
          "internalType": "uint16",
          "name": "maxTokenFeeBps",
          "type": "uint16"
        }
      ],
      "name": "TokenFeeExceedsCallerMax",
      "type": "error"
    },
    {
      "inputs": [],
      "name": "TokenFeeTooHigh",
      "type": "error"
    },
    {
      "inputs": [],
      "name": "ZeroAddress",
      "type": "error"
    },
    {
      "inputs": [],
      "name": "ZeroAmount",
      "type": "error"
    },
    {
      "anonymous": false,
      "inputs": [
        {
          "indexed": true,
          "internalType": "uint40",
          "name": "id",
          "type": "uint40"
        },
        {
          "indexed": false,
          "internalType": "bool",
          "name": "paidInEth",
          "type": "bool"
        },
        {
          "indexed": false,
          "internalType": "uint256",
          "name": "amount",
          "type": "uint256"
        }
      ],
      "name": "FeeCollected",
      "type": "event"
    },
    {
      "anonymous": false,
      "inputs": [
        {
          "indexed": false,
          "internalType": "uint256",
          "name": "ethFee",
          "type": "uint256"
        },
        {
          "indexed": false,
          "internalType": "uint16",
          "name": "tokenFeeBps",
          "type": "uint16"
        },
        {
          "indexed": true,
          "internalType": "address",
          "name": "feeReceiver",
          "type": "address"
        }
      ],
      "name": "FeeConfigUpdated",
      "type": "event"
    },
    {
      "anonymous": false,
      "inputs": [
        {
          "indexed": true,
          "internalType": "address",
          "name": "previousOwner",
          "type": "address"
        },
        {
          "indexed": true,
          "internalType": "address",
          "name": "newOwner",
          "type": "address"
        }
      ],
      "name": "OwnershipTransferred",
      "type": "event"
    },
    {
      "anonymous": false,
      "inputs": [
        {
          "indexed": false,
          "internalType": "uint40",
          "name": "id",
          "type": "uint40"
        },
        {
          "indexed": false,
          "internalType": "enum ITitanLockerManagerV2.LockKind",
          "name": "kind",
          "type": "uint8"
        },
        {
          "indexed": true,
          "internalType": "address",
          "name": "positionManager",
          "type": "address"
        },
        {
          "indexed": false,
          "internalType": "uint256",
          "name": "tokenId",
          "type": "uint256"
        },
        {
          "indexed": true,
          "internalType": "address",
          "name": "token0",
          "type": "address"
        },
        {
          "indexed": true,
          "internalType": "address",
          "name": "token1",
          "type": "address"
        },
        {
          "indexed": false,
          "internalType": "address",
          "name": "createdBy",
          "type": "address"
        },
        {
          "indexed": false,
          "internalType": "uint40",
          "name": "unlockTime",
          "type": "uint40"
        }
      ],
      "name": "PositionLockerCreated",
      "type": "event"
    },
    {
      "anonymous": false,
      "inputs": [
        {
          "indexed": true,
          "internalType": "address",
          "name": "positionManager",
          "type": "address"
        },
        {
          "indexed": false,
          "internalType": "enum ITitanLockerManagerV2.LockKind",
          "name": "kind",
          "type": "uint8"
        },
        {
          "indexed": false,
          "internalType": "bool",
          "name": "allowed",
          "type": "bool"
        }
      ],
      "name": "PositionManagerSet",
      "type": "event"
    },
    {
      "anonymous": false,
      "inputs": [
        {
          "indexed": false,
          "internalType": "uint40",
          "name": "id",
          "type": "uint40"
        },
        {
          "indexed": true,
          "internalType": "address",
          "name": "token",
          "type": "address"
        },
        {
          "indexed": true,
          "internalType": "address",
          "name": "token0",
          "type": "address"
        },
        {
          "indexed": true,
          "internalType": "address",
          "name": "token1",
          "type": "address"
        },
        {
          "indexed": false,
          "internalType": "address",
          "name": "createdBy",
          "type": "address"
        },
        {
          "indexed": false,
          "internalType": "uint256",
          "name": "balance",
          "type": "uint256"
        },
        {
          "indexed": false,
          "internalType": "uint40",
          "name": "unlockTime",
          "type": "uint40"
        }
      ],
      "name": "TokenLockerCreated",
      "type": "event"
    },
    {
      "anonymous": false,
      "inputs": [
        {
          "indexed": false,
          "internalType": "uint40",
          "name": "id",
          "type": "uint40"
        },
        {
          "indexed": true,
          "internalType": "address",
          "name": "token",
          "type": "address"
        },
        {
          "indexed": true,
          "internalType": "address",
          "name": "token0",
          "type": "address"
        },
        {
          "indexed": true,
          "internalType": "address",
          "name": "token1",
          "type": "address"
        },
        {
          "indexed": false,
          "internalType": "address",
          "name": "createdBy",
          "type": "address"
        },
        {
          "indexed": false,
          "internalType": "uint256",
          "name": "amount",
          "type": "uint256"
        },
        {
          "indexed": false,
          "internalType": "uint40",
          "name": "start",
          "type": "uint40"
        },
        {
          "indexed": false,
          "internalType": "uint40",
          "name": "cliff",
          "type": "uint40"
        },
        {
          "indexed": false,
          "internalType": "uint40",
          "name": "end",
          "type": "uint40"
        }
      ],
      "name": "VestingLockerCreated",
      "type": "event"
    },
    {
      "inputs": [
        {
          "internalType": "address",
          "name": "positionManager_",
          "type": "address"
        },
        {
          "internalType": "uint256",
          "name": "tokenId_",
          "type": "uint256"
        },
        {
          "internalType": "uint40",
          "name": "unlockTime_",
          "type": "uint40"
        }
      ],
      "name": "createPositionLock",
      "outputs": [],
      "stateMutability": "payable",
      "type": "function"
    },
    {
      "inputs": [
        {
          "internalType": "address",
          "name": "tokenAddress_",
          "type": "address"
        },
        {
          "internalType": "uint256",
          "name": "amount_",
          "type": "uint256"
        },
        {
          "internalType": "uint40",
          "name": "unlockTime_",
          "type": "uint40"
        },
        {
          "internalType": "uint16",
          "name": "maxTokenFeeBps_",
          "type": "uint16"
        }
      ],
      "name": "createTokenLock",
      "outputs": [],
      "stateMutability": "payable",
      "type": "function"
    },
    {
      "inputs": [
        {
          "internalType": "address",
          "name": "tokenAddress_",
          "type": "address"
        },
        {
          "internalType": "uint256",
          "name": "amount_",
          "type": "uint256"
        },
        {
          "internalType": "uint40",
          "name": "start_",
          "type": "uint40"
        },
        {
          "internalType": "uint40",
          "name": "cliff_",
          "type": "uint40"
        },
        {
          "internalType": "uint40",
          "name": "end_",
          "type": "uint40"
        },
        {
          "internalType": "uint16",
          "name": "maxTokenFeeBps_",
          "type": "uint16"
        }
      ],
      "name": "createVestingLock",
      "outputs": [],
      "stateMutability": "payable",
      "type": "function"
    },
    {
      "inputs": [],
      "name": "creationEnabled",
      "outputs": [
        {
          "internalType": "bool",
          "name": "",
          "type": "bool"
        }
      ],
      "stateMutability": "view",
      "type": "function"
    },
    {
      "inputs": [],
      "name": "ethFee",
      "outputs": [
        {
          "internalType": "uint256",
          "name": "",
          "type": "uint256"
        }
      ],
      "stateMutability": "view",
      "type": "function"
    },
    {
      "inputs": [],
      "name": "feeReceiver",
      "outputs": [
        {
          "internalType": "address",
          "name": "",
          "type": "address"
        }
      ],
      "stateMutability": "view",
      "type": "function"
    },
    {
      "inputs": [
        {
          "internalType": "uint40",
          "name": "id_",
          "type": "uint40"
        }
      ],
      "name": "getTokenLockAddress",
      "outputs": [
        {
          "internalType": "address",
          "name": "",
          "type": "address"
        }
      ],
      "stateMutability": "view",
      "type": "function"
    },
    {
      "inputs": [
        {
          "internalType": "uint40",
          "name": "id_",
          "type": "uint40"
        }
      ],
      "name": "getTokenLockData",
      "outputs": [
        {
          "internalType": "enum ITitanLockerManagerV2.LockKind",
          "name": "kind",
          "type": "uint8"
        },
        {
          "internalType": "uint40",
          "name": "id",
          "type": "uint40"
        },
        {
          "internalType": "address",
          "name": "contractAddress",
          "type": "address"
        },
        {
          "internalType": "address",
          "name": "lockOwner",
          "type": "address"
        },
        {
          "internalType": "address",
          "name": "asset",
          "type": "address"
        },
        {
          "internalType": "uint256",
          "name": "tokenId",
          "type": "uint256"
        },
        {
          "internalType": "address",
          "name": "createdBy",
          "type": "address"
        },
        {
          "internalType": "uint40",
          "name": "createdAt",
          "type": "uint40"
        },
        {
          "internalType": "uint40",
          "name": "unlockTime",
          "type": "uint40"
        },
        {
          "internalType": "uint256",
          "name": "balance",
          "type": "uint256"
        }
      ],
      "stateMutability": "view",
      "type": "function"
    },
    {
      "inputs": [
        {
          "internalType": "address",
          "name": "address_",
          "type": "address"
        }
      ],
      "name": "getTokenLockersForAddress",
      "outputs": [
        {
          "internalType": "uint40[]",
          "name": "",
          "type": "uint40[]"
        }
      ],
      "stateMutability": "view",
      "type": "function"
    },
    {
      "inputs": [
        {
          "internalType": "address",
          "name": "account_",
          "type": "address"
        }
      ],
      "name": "isExemptFromFees",
      "outputs": [
        {
          "internalType": "bool",
          "name": "",
          "type": "bool"
        }
      ],
      "stateMutability": "view",
      "type": "function"
    },
    {
      "inputs": [
        {
          "internalType": "uint40",
          "name": "id_",
          "type": "uint40"
        },
        {
          "internalType": "address",
          "name": "newOwner_",
          "type": "address"
        },
        {
          "internalType": "address",
          "name": "previousOwner_",
          "type": "address"
        },
        {
          "internalType": "address",
          "name": "createdBy_",
          "type": "address"
        }
      ],
      "name": "notifyLockerOwnerChange",
      "outputs": [],
      "stateMutability": "nonpayable",
      "type": "function"
    },
    {
      "inputs": [],
      "name": "owner",
      "outputs": [
        {
          "internalType": "address",
          "name": "",
          "type": "address"
        }
      ],
      "stateMutability": "view",
      "type": "function"
    },
    {
      "inputs": [
        {
          "internalType": "address",
          "name": "positionManager_",
          "type": "address"
        }
      ],
      "name": "positionManagerKind",
      "outputs": [
        {
          "internalType": "enum ITitanLockerManagerV2.LockKind",
          "name": "kind",
          "type": "uint8"
        },
        {
          "internalType": "bool",
          "name": "allowed",
          "type": "bool"
        }
      ],
      "stateMutability": "view",
      "type": "function"
    },
    {
      "inputs": [
        {
          "internalType": "bool",
          "name": "value_",
          "type": "bool"
        }
      ],
      "name": "setCreationEnabled",
      "outputs": [],
      "stateMutability": "nonpayable",
      "type": "function"
    },
    {
      "inputs": [
        {
          "internalType": "uint256",
          "name": "value_",
          "type": "uint256"
        }
      ],
      "name": "setEthFee",
      "outputs": [],
      "stateMutability": "nonpayable",
      "type": "function"
    },
    {
      "inputs": [
        {
          "internalType": "address",
          "name": "account_",
          "type": "address"
        },
        {
          "internalType": "bool",
          "name": "exempt_",
          "type": "bool"
        }
      ],
      "name": "setFeeExempt",
      "outputs": [],
      "stateMutability": "nonpayable",
      "type": "function"
    },
    {
      "inputs": [
        {
          "internalType": "address payable",
          "name": "value_",
          "type": "address"
        }
      ],
      "name": "setFeeReceiver",
      "outputs": [],
      "stateMutability": "nonpayable",
      "type": "function"
    },
    {
      "inputs": [
        {
          "internalType": "address",
          "name": "positionManager_",
          "type": "address"
        },
        {
          "internalType": "enum ITitanLockerManagerV2.LockKind",
          "name": "kind_",
          "type": "uint8"
        },
        {
          "internalType": "bool",
          "name": "allowed_",
          "type": "bool"
        }
      ],
      "name": "setPositionManager",
      "outputs": [],
      "stateMutability": "nonpayable",
      "type": "function"
    },
    {
      "inputs": [
        {
          "internalType": "uint16",
          "name": "value_",
          "type": "uint16"
        }
      ],
      "name": "setTokenFeeBps",
      "outputs": [],
      "stateMutability": "nonpayable",
      "type": "function"
    },
    {
      "inputs": [],
      "name": "tokenFeeBps",
      "outputs": [
        {
          "internalType": "uint16",
          "name": "",
          "type": "uint16"
        }
      ],
      "stateMutability": "view",
      "type": "function"
    },
    {
      "inputs": [],
      "name": "tokenLockerCount",
      "outputs": [
        {
          "internalType": "uint40",
          "name": "",
          "type": "uint40"
        }
      ],
      "stateMutability": "view",
      "type": "function"
    },
    {
      "inputs": [
        {
          "internalType": "address",
          "name": "newOwner_",
          "type": "address"
        }
      ],
      "name": "transferOwnership",
      "outputs": [],
      "stateMutability": "nonpayable",
      "type": "function"
    }
  ],
  "transactionHash": "0x81af7f0441d839b7f92270176d735497f6ae0425a0c5d132f8957df24cb39f37",
  "args": [
    "0x5C773302FBEED11fA59a6939f0354678738B02DB"
  ],
  "numDeployments": 1,
  "solcInputHash": "354a05b09a99ca544a36cdd4f1479b5a",
  "bytecode": "0x60806040526000805460ff60a01b1916600160a01b17905534801561002357600080fd5b50604051614eed380380614eed83398101604081905261004291610111565b600080546001600160a01b031916339081178255604051909182917f8be0079c531659141344cd1fd0a4f28419497f9722a3daafe3b4186f6b6457e0908290a35060017f9b779b17422d0df92223018b32b4d1fa46e071723d6817e2486d003becc55f00556001600160a01b0381166100ce5760405163d92e233d60e01b815260040160405180910390fd5b600680546702c68af0bb14000060055561ffff196001600160a01b039093166201000002929092166001600160b01b0319909216919091176101f4179055610141565b60006020828403121561012357600080fd5b81516001600160a01b038116811461013a57600080fd5b9392505050565b614d9d806101506000396000f3fe6080604052600436106101355760003560e01c80637cf4105d116100ab578063a28a1f711161006f578063a28a1f7114610372578063a5e4122a146103af578063a681711714610407578063b3f006741461043d578063efdcd97414610461578063f2fde38b1461048157600080fd5b80637cf4105d146102bd57806383a1364a146102d05780638da5cb5b146102fd5780638ebfc7961461032f5780639d3518771461034f57600080fd5b80634c7ababd116100fd5780634c7ababd146101f35780634cf1115d146102135780634db1647c1461023157806360fd0989146102445780636a5dab9f1461027d57806375e885a21461029d57600080fd5b80630307535e1461013a57806322df78d01461015c57806326f3ed2b1461018c5780632c31fb08146101c05780633f6738a9146101d3575b600080fd5b34801561014657600080fd5b5061015a610155366004611b9a565b6104a1565b005b34801561016857600080fd5b50600054600160a01b900460ff165b60405190151581526020015b60405180910390f35b34801561019857600080fd5b50600054600160a81b900464ffffffffff1660405164ffffffffff9091168152602001610183565b61015a6101ce366004611be4565b610576565b3480156101df57600080fd5b5061015a6101ee366004611c26565b61084a565b3480156101ff57600080fd5b5061015a61020e366004611c3f565b6108bd565b34801561021f57600080fd5b50600554604051908152602001610183565b61015a61023f366004611c9b565b610b3e565b34801561025057600080fd5b5061017761025f366004611d10565b6001600160a01b031660009081526007602052604090205460ff1690565b34801561028957600080fd5b5061015a610298366004611d3b565b610e1f565b3480156102a957600080fd5b5061015a6102b8366004611d65565b610e5e565b61015a6102cb366004611da5565b610f9a565b3480156102dc57600080fd5b506102f06102eb366004611d10565b611266565b6040516101839190611df6565b34801561030957600080fd5b506000546001600160a01b03165b6040516001600160a01b039091168152602001610183565b34801561033b57600080fd5b5061015a61034a366004611e40565b611300565b34801561035b57600080fd5b5060065460405161ffff9091168152602001610183565b34801561037e57600080fd5b5061031761038d366004611e79565b64ffffffffff166000908152600160205260409020546001600160a01b031690565b3480156103bb57600080fd5b506103f96103ca366004611d10565b6001600160a01b031660009081526003602090815260408083205460049092529091205460ff91821692911690565b604051610183929190611ece565b34801561041357600080fd5b50610427610422366004611e79565b61134c565b6040516101839a99989796959493929190611eeb565b34801561044957600080fd5b506006546201000090046001600160a01b0316610317565b34801561046d57600080fd5b5061015a61047c366004611d10565b611413565b34801561048d57600080fd5b5061015a61049c366004611d10565b6114cd565b6000546001600160a01b0316336001600160a01b0316146104e857335b60405163060296c760e31b81526001600160a01b0390911660048201526024015b60405180910390fd5b6101f461ffff8216111561050f57604051630b38148960e21b815260040160405180910390fd5b6006805461ffff191661ffff831690811791829055600554604080519182526020820192909252620100009092046001600160a01b0316917f63164921add8563148a9f0dba76dc04da8593cf105f95aef2a1053b57fba523e91015b60405180910390a250565b600054600160a01b900460ff166105a05760405163125b940760e21b815260040160405180910390fd5b6105a8611521565b6001600160a01b03831660009081526004602052604090205460ff166105ec57604051630ebdd12f60e21b81526001600160a01b03841660048201526024016104df565b6001600160a01b038316600090815260036020526040812054815460ff9091169190600160a81b900464ffffffffff1681601561062883611f6d565b91906101000a81548164ffffffffff021916908364ffffffffff16021790555090506106538161153d565b60003082338589898960008060008060405161066e90611b76565b6106829b9a99989796959493929190611f94565b604051809103906000f08015801561069e573d6000803e3d6000fd5b5064ffffffffff8316600090815260016020526040902080546001600160a01b0319166001600160a01b038381169190911790915590915086166342842e0e336040516001600160e01b031960e084901b1681526001600160a01b039182166004820152908416602482015260448101889052606401600060405180830381600087803b15801561072e57600080fd5b505af1158015610742573d6000803e3d6000fd5b50505050610751828783611669565b600080826001600160a01b031663d95bd6c96040518163ffffffff1660e01b8152600401606060405180830381865afa158015610792573d6000803e3d6000fd5b505050506040513d601f19601f820116820180604052508101906107b69190612017565b92509250506107c684838361172b565b806001600160a01b0316826001600160a01b0316896001600160a01b03167fb0e93c0715a252ef3a37bd0ac4f212ad035f43b42479c6cbc396b3368e34384187898c61080f3390565b8d604051610821959493929190612059565b60405180910390a450505050506108456001600080516020614d4883398151915255565b505050565b6000546001600160a01b0316336001600160a01b03161461086b57336104be565b60058190556006546040805183815261ffff83166020820152620100009092046001600160a01b0316917f63164921add8563148a9f0dba76dc04da8593cf105f95aef2a1053b57fba523e910161056b565b64ffffffffff84166000908152600160205260409020546001600160a01b0316336001600160a01b03161461091457604051630db9d21960e21b815264ffffffffff851660048201523360248201526044016104df565b806001600160a01b0316826001600160a01b031614610a7c576001600160a01b0382166000908152600260205260408120905b8154811015610a79578564ffffffffff1682828154811061096a5761096a6120a0565b90600052602060002090600691828204019190066005029054906101000a900464ffffffffff1664ffffffffff1603610a7157815482906109ad906001906120b6565b815481106109bd576109bd6120a0565b90600052602060002090600691828204019190066005029054906101000a900464ffffffffff168282815481106109f6576109f66120a0565b90600052602060002090600691828204019190066005026101000a81548164ffffffffff021916908364ffffffffff16021790555081805480610a3b57610a3b6120cf565b60019003818190600052602060002090600691828204019190066005026101000a81549064ffffffffff02191690559055610a79565b600101610947565b50505b6001600160a01b0383166000908152600260205260408120905b8154811015610afb578564ffffffffff16828281548110610ab957610ab96120a0565b90600052602060002090600691828204019190066005029054906101000a900464ffffffffff1664ffffffffff1603610af3575050610b38565b600101610a96565b5080546001810182556000918252602090912060068083049091018054919092066005026101000a64ffffffffff81810219909216918716021790555b50505050565b600054600160a01b900460ff16610b685760405163125b940760e21b815260040160405180910390fd5b610b70611521565b84600003610b9157604051631f2a200560e01b815260040160405180910390fd5b8164ffffffffff168464ffffffffff16101580610bbb57508364ffffffffff168364ffffffffff16105b80610bd357508164ffffffffff168364ffffffffff16115b80610bec57504264ffffffffff168264ffffffffff1611155b15610c0a57604051631f8136eb60e31b815260040160405180910390fd5b60008054600160a81b900464ffffffffff16816015610c2883611f6d565b91906101000a81548164ffffffffff021916908364ffffffffff16021790555090506000610c58828989866117f1565b9050600030833360038c60008a8d8d8d8b604051610c7590611b76565b610c899b9a99989796959493929190611f94565b604051809103906000f080158015610ca5573d6000803e3d6000fd5b5064ffffffffff8416600090815260016020526040902080546001600160a01b0319166001600160a01b0383161790559050610ced336001600160a01b038b16908385611a2b565b610cf8838a83611669565b600080826001600160a01b031663d95bd6c96040518163ffffffff1660e01b8152600401606060405180830381865afa158015610d39573d6000803e3d6000fd5b505050506040513d601f19601f82011682018060405250810190610d5d9190612017565b9250925050610d6d85838361172b565b806001600160a01b0316826001600160a01b03168c6001600160a01b03167f202cea0f034e4899748fca23b39f2354d17c79cfdb27b00f88bc9bdfbe672aad88610db43390565b6040805164ffffffffff93841681526001600160a01b03909216602083015281018a9052818f166060820152818e166080820152908c1660a082015260c00160405180910390a45050505050610e176001600080516020614d4883398151915255565b505050505050565b6000546001600160a01b0316336001600160a01b031614610e4057336104be565b60008054911515600160a01b0260ff60a01b19909216919091179055565b6000546001600160a01b0316336001600160a01b031614610e7f57336104be565b6001600160a01b038316610ea65760405163d92e233d60e01b815260040160405180910390fd5b6001826003811115610eba57610eba611e96565b14158015610eda57506002826003811115610ed757610ed7611e96565b14155b15610ef857604051631aa81af160e21b815260040160405180910390fd5b6001600160a01b03831660009081526003602081905260409091208054849260ff19909116906001908490811115610f3257610f32611e96565b02179055506001600160a01b03831660008181526004602052604090819020805460ff1916841515179055517fad74493cbf6a5b49fc5f2893a2f5eb37f0acf626529fbc3ca3c88b15bf548e5d90610f8d9085908590611ece565b60405180910390a2505050565b600054600160a01b900460ff16610fc45760405163125b940760e21b815260040160405180910390fd5b610fcc611521565b82600003610fed57604051631f2a200560e01b815260040160405180910390fd5b60008054600160a81b900464ffffffffff1681601561100b83611f6d565b91906101000a81548164ffffffffff021916908364ffffffffff1602179055509050600061103b828787866117f1565b9050600030833360008a60008a60008060008060405161105a90611b76565b61106e9b9a99989796959493929190611f94565b604051809103906000f08015801561108a573d6000803e3d6000fd5b5064ffffffffff8416600090815260016020526040902080546001600160a01b0319166001600160a01b03831617905590506110d2336001600160a01b038916908385611a2b565b6110dd838883611669565b600080826001600160a01b031663d95bd6c96040518163ffffffff1660e01b8152600401606060405180830381865afa15801561111e573d6000803e3d6000fd5b505050506040513d601f19601f820116820180604052508101906111429190612017565b925092505061115285838361172b565b806001600160a01b0316826001600160a01b03168a6001600160a01b03167f531cba00a411ade37b4ca8175d92c94149f19536bd8e5a83d581aa7f040d192e886111993390565b8e6001600160a01b03166370a082318a6040518263ffffffff1660e01b81526004016111d491906001600160a01b0391909116815260200190565b602060405180830381865afa1580156111f1573d6000803e3d6000fd5b505050506040513d601f19601f8201168201806040525081019061121591906120e5565b6040805164ffffffffff94851681526001600160a01b039093166020840152820152908c16606082015260800160405180910390a45050505050610b386001600080516020614d4883398151915255565b6001600160a01b0381166000908152600260209081526040918290208054835181840281018401909452808452606093928301828280156112f457602002820191906000526020600020906000905b82829054906101000a900464ffffffffff1664ffffffffff16815260200190600501906020826004010492830192600103820291508084116112b55790505b50505050509050919050565b6000546001600160a01b0316336001600160a01b03161461132157336104be565b6001600160a01b03919091166000908152600760205260409020805460ff1916911515919091179055565b600080600080600080600080600080600160008c64ffffffffff1664ffffffffff16815260200190815260200160002060009054906101000a90046001600160a01b03166001600160a01b0316634c02bf0b6040518163ffffffff1660e01b815260040161014060405180830381865afa1580156113ce573d6000803e3d6000fd5b505050506040513d601f19601f820116820180604052508101906113f291906120fe565b99509950995099509950995099509950995099509193959799509193959799565b6000546001600160a01b0316336001600160a01b03161461143457336104be565b6001600160a01b03811661145b5760405163d92e233d60e01b815260040160405180910390fd5b600680546001600160a01b038381166201000090810262010000600160b01b031984168117948590556005546040805191825261ffff92831692909516919091176020820152930416917f63164921add8563148a9f0dba76dc04da8593cf105f95aef2a1053b57fba523e910161056b565b6000546001600160a01b0316336001600160a01b0316146114ee57336104be565b6001600160a01b0381166115155760405163d92e233d60e01b815260040160405180910390fd5b61151e81611a61565b50565b611529611ad2565b6002600080516020614d4883398151915255565b3360009081526007602052604090205460ff161561157457341561151e5760405163b000960760e01b815260040160405180910390fd5b60055434146115a35760055460405163082fc47b60e21b815260048101919091523460248201526044016104df565b341561151e576006546040516000916201000090046001600160a01b03169034908381818185875af1925050503d80600081146115fc576040519150601f19603f3d011682016040523d82523d6000602084013e611601565b606091505b505090508061162357604051630db2c7f160e31b815260040160405180910390fd5b604080516001815234602082015264ffffffffff8416917f599e0e7458510fc6240982cbfeb3a6d640707bc3457603c774d41cbe0c96f628910160405180910390a25050565b3360009081526002602090815260408083208054600180820183559185528385206006808304909101805464ffffffffff9a8b16600594849006850261010090810a828102908e0219909316929092179092556001600160a01b03998a16885285882080548087018255908952878920848204018054918590068602830a808502908e0219909216919091179055979098168652928520805492830181558552929093208184040180549190930690910290920a928302929093021916179055565b6001600160a01b0382161561178b576001600160a01b038216600090815260026020908152604082208054600181018255908352912060068083049091018054919092066005026101000a64ffffffffff81810219909216918616021790555b6001600160a01b03811615610845576001600160a01b0316600090815260026020908152604082208054600181018255908352912060068083049091018054919092066005026101000a64ffffffffff8181021990921694909116029290921790915550565b336000908152600760205260408120543415159060ff161561183557801561182c5760405163b000960760e01b815260040160405180910390fd5b83915050611a23565b801561193057600554341461186a5760055460405163082fc47b60e21b815260048101919091523460248201526044016104df565b6006546040516000916201000090046001600160a01b03169034908381818185875af1925050503d80600081146118bd576040519150601f19603f3d011682016040523d82523d6000602084013e6118c2565b606091505b50509050806118e457604051630db2c7f160e31b815260040160405180910390fd5b604080516001815234602082015264ffffffffff8916917f599e0e7458510fc6240982cbfeb3a6d640707bc3457603c774d41cbe0c96f628910160405180910390a28492505050611a23565b60065461ffff8085169116111561196c576006546040516340a0962960e11b815261ffff918216600482015290841660248201526044016104df565b6006546000906127109060019082906119899061ffff16896121c9565b61199391906121e0565b61199d91906120b6565b6119a791906121f3565b90506119b381866120b6565b92508015611a20576119dc336006546001600160a01b0389811692916201000090041684611a2b565b60408051600081526020810183905264ffffffffff8916917f599e0e7458510fc6240982cbfeb3a6d640707bc3457603c774d41cbe0c96f628910160405180910390a25b50505b949350505050565b611a39848484846001611b04565b610b3857604051635274afe760e01b81526001600160a01b03851660048201526024016104df565b6000546001600160a01b0316336001600160a01b031614611a8257336104be565b600080546001600160a01b038381166001600160a01b0319831681178455604051919092169283917f8be0079c531659141344cd1fd0a4f28419497f9722a3daafe3b4186f6b6457e09190a35050565b600080516020614d4883398151915254600203611b0257604051633ee5aeb560e01b815260040160405180910390fd5b565b6040516323b872dd60e01b60008181526001600160a01b038781166004528616602452604485905291602083606481808c5af192506001600051148316611b64578383151615611b57573d6000823e3d81fd5b6000883b113d1516831692505b60405250600060605295945050505050565b612b328061221683390190565b803561ffff81168114611b9557600080fd5b919050565b600060208284031215611bac57600080fd5b611bb582611b83565b9392505050565b6001600160a01b038116811461151e57600080fd5b64ffffffffff8116811461151e57600080fd5b600080600060608486031215611bf957600080fd5b8335611c0481611bbc565b9250602084013591506040840135611c1b81611bd1565b809150509250925092565b600060208284031215611c3857600080fd5b5035919050565b60008060008060808587031215611c5557600080fd5b8435611c6081611bd1565b93506020850135611c7081611bbc565b92506040850135611c8081611bbc565b91506060850135611c9081611bbc565b939692955090935050565b60008060008060008060c08789031215611cb457600080fd5b8635611cbf81611bbc565b9550602087013594506040870135611cd681611bd1565b93506060870135611ce681611bd1565b92506080870135611cf681611bd1565b9150611d0460a08801611b83565b90509295509295509295565b600060208284031215611d2257600080fd5b8135611bb581611bbc565b801515811461151e57600080fd5b600060208284031215611d4d57600080fd5b8135611bb581611d2d565b6004811061151e57600080fd5b600080600060608486031215611d7a57600080fd5b8335611d8581611bbc565b92506020840135611d9581611d58565b91506040840135611c1b81611d2d565b60008060008060808587031215611dbb57600080fd5b8435611dc681611bbc565b9350602085013592506040850135611ddd81611bd1565b9150611deb60608601611b83565b905092959194509250565b602080825282518282018190526000918401906040840190835b81811015611e3557835164ffffffffff16835260209384019390920191600101611e10565b509095945050505050565b60008060408385031215611e5357600080fd5b8235611e5e81611bbc565b91506020830135611e6e81611d2d565b809150509250929050565b600060208284031215611e8b57600080fd5b8135611bb581611bd1565b634e487b7160e01b600052602160045260246000fd5b60048110611eca57634e487b7160e01b600052602160045260246000fd5b9052565b60408101611edc8285611eac565b82151560208301529392505050565b6101408101611efa828d611eac565b64ffffffffff9a8b1660208301526001600160a01b03998a1660408301529789166060820152958816608087015260a08601949094529190951660c084015293851660e08301529290931661010084015261012090920152919050565b634e487b7160e01b600052601160045260246000fd5b600064ffffffffff821664ffffffffff8103611f8b57611f8b611f57565b60010192915050565b6001600160a01b038c8116825264ffffffffff8c1660208301528a1660408201526101608101611fc7606083018b611eac565b6001600160a01b0398909816608082015260a081019690965264ffffffffff94851660c087015292841660e086015290831661010085015290911661012083015261014090910152949350505050565b60008060006060848603121561202c57600080fd5b835161203781611d2d565b602085015190935061204881611bbc565b6040850151909250611c1b81611bbc565b64ffffffffff8616815260a081016120746020830187611eac565b60408201949094526001600160a01b0392909216606083015264ffffffffff1660809091015292915050565b634e487b7160e01b600052603260045260246000fd5b818103818111156120c9576120c9611f57565b92915050565b634e487b7160e01b600052603160045260246000fd5b6000602082840312156120f757600080fd5b5051919050565b6000806000806000806000806000806101408b8d03121561211e57600080fd5b8a5161212981611d58565b60208c0151909a5061213a81611bd1565b60408c015190995061214b81611bbc565b60608c015190985061215c81611bbc565b60808c015190975061216d81611bbc565b60a08c015160c08d0151919750955061218581611bbc565b60e08c015190945061219681611bd1565b6101008c01519093506121a881611bd1565b8092505060006101208c01519050809150509295989b9194979a5092959850565b80820281158282048414176120c9576120c9611f57565b808201808211156120c9576120c9611f57565b60008261221057634e487b7160e01b600052601260045260246000fd5b50049056fe61020060405234801561001157600080fd5b50604051612b32380380612b32833981016040819052610030916102f9565b600080546001600160a01b0319166001600160a01b038b1690811782556040518b92907f8be0079c531659141344cd1fd0a4f28419497f9722a3daafe3b4186f6b6457e0908290a35060017f9b779b17422d0df92223018b32b4d1fa46e071723d6817e2486d003becc55f00556001600160a01b0389166100c45760405163d92e233d60e01b815260040160405180910390fd5b4264ffffffffff168564ffffffffff16116100f25760405163e0aa70c960e01b815260040160405180910390fd5b60006003896003811115610108576101086103c4565b1490506000818061012a575060008a6003811115610128576101286103c4565b145b90508115610192578364ffffffffff168664ffffffffff1610158061015c57508564ffffffffff168564ffffffffff16105b8061017457508364ffffffffff168564ffffffffff16115b1561019257604051631f8136eb60e31b815260040160405180910390fd5b6001600160a01b038d1660a05264ffffffffff8c16610120528960038111156101bd576101bd6103c4565b60808160038111156101d1576101d16103c4565b9052506001600160a01b0389811660c05260e08990528b16610100524264ffffffffff908116610140526002805464ffffffffff19169189169190911790558080156102945750604051630f24ca7d60e01b81526001600160a01b038a16600482015273772279251b563028a32cD1505e3F2f8485C746D990630f24ca7d90602401602060405180830381865af4158015610270573d6000803e3d6000fd5b505050506040513d601f19601f8201168201806040525081019061029491906103da565b151561016052505064ffffffffff938416610180529183166101a0529091166101c0526101e0525061040395505050505050565b80516001600160a01b03811681146102df57600080fd5b919050565b805164ffffffffff811681146102df57600080fd5b60008060008060008060008060008060006101608c8e03121561031b57600080fd5b6103248c6102c8565b9a5061033260208d016102e4565b995061034060408d016102c8565b985060608c01516004811061035457600080fd5b975061036260808d016102c8565b60a08d0151909750955061037860c08d016102e4565b945061038660e08d016102e4565b93506103956101008d016102e4565b92506103a46101208d016102e4565b915060006101408d01519050809150509295989b509295989b9093969950565b634e487b7160e01b600052602160045260246000fd5b6000602082840312156103ec57600080fd5b815180151581146103fc57600080fd5b9392505050565b60805160a05160c05160e05161010051610120516101405161016051610180516101a0516101c0516101e05161256a6105c860003960008181610300015281816119a00152611a4c0152600081816102d70152818161196a01526119ea0152600081816102af015261192c01526000818161028a015281816119c90152611a1a0152600061142f015260006107e601526000818161073b0152611c100152600081816107c30152611c4f01526000818161064b015281816106c7015281816107a001528181610d2701528181610e2701528181610f54015281816113070152818161155c0152611625015260008181610587015281816105de0152818161077d015281816108dd0152818161097c01528181610da001528181610e5001528181611016015281816111df015281816112ca01528181611475015281816115820152818161164b01528181611770015261185301526000611c7701526000818161036d0152818161049d0152818161052b0152818161071a0152818161084c01528181610b3401528181610c4001528181610c7d01528181610ce60152818161115c0152818161128f0152818161151801528181611a850152611ac0015261256a6000f3fe60806040526004361061010d5760003560e01c8063ab67d5ee11610095578063d88e7f4e11610064578063d88e7f4e14610399578063d8fc6519146103b9578063d95bd6c9146103d9578063f2fde38b14610415578063fbccedae1461043557600080fd5b8063ab67d5ee1461024e578063bcc4e4ab1461026e578063c879657214610334578063cb248b861461035e57600080fd5b80634c02bf0b116100dc5780634c02bf0b146101b157806386d1a69f146101dc57806389476069146101f15780638da5cb5b14610211578063a0ef91df1461023957600080fd5b8063150b7a02146101195780633ccfd60b1461016257806344b1231f1461017957806345d30a171461019c57600080fd5b3661011457005b600080fd5b34801561012557600080fd5b50610144610134366004611ece565b630a85bd0160e11b949350505050565b6040516001600160e01b031990911681526020015b60405180910390f35b34801561016e57600080fd5b5061017761044a565b005b34801561018557600080fd5b5061018e610708565b604051908152602001610159565b3480156101a857600080fd5b5060015461018e565b3480156101bd57600080fd5b506101c6610718565b6040516101599a99989796959493929190611fcf565b3480156101e857600080fd5b5061018e610826565b3480156101fd57600080fd5b5061017761020c36600461203b565b610942565b34801561021d57600080fd5b506000546040516001600160a01b039091168152602001610159565b34801561024557600080fd5b50610177610a69565b34801561025a57600080fd5b50610177610269366004612072565b610b0f565b34801561027a57600080fd5b506001546040805164ffffffffff7f0000000000000000000000000000000000000000000000000000000000000000811682527f0000000000000000000000000000000000000000000000000000000000000000811660208301527f000000000000000000000000000000000000000000000000000000000000000016918101919091527f00000000000000000000000000000000000000000000000000000000000000006060820152608081019190915260a001610159565b34801561034057600080fd5b50610349610c18565b60408051928352602083019190915201610159565b34801561036a57600080fd5b507f0000000000000000000000000000000000000000000000000000000000000000604051610159919061208d565b3480156103a557600080fd5b506101776103b436600461209b565b611137565b3480156103c557600080fd5b506101776103d43660046120c7565b611262565b3480156103e557600080fd5b506103ee61141b565b6040805193151584526001600160a01b039283166020850152911690820152606001610159565b34801561042157600080fd5b5061017761043036600461203b565b6116db565b34801561044157600080fd5b5061018e61172c565b6000546001600160a01b0316336001600160a01b03161461049157335b60405163060296c760e31b81526001600160a01b0390911660048201526024015b60405180910390fd5b6104996117fb565b60037f000000000000000000000000000000000000000000000000000000000000000060038111156104cd576104cd611f97565b036104eb5760405163170e46a760e01b815260040160405180910390fd5b60025464ffffffffff90811642909116101561052757600254604051632869611760e11b815264ffffffffff9091166004820152602401610488565b60007f0000000000000000000000000000000000000000000000000000000000000000600381111561055b5761055b611f97565b036105dc576105ae6105756000546001600160a01b031690565b61057d61182a565b6001600160a01b037f00000000000000000000000000000000000000000000000000000000000000001691906118c6565b6040517f75c111ce67858e12d7a8820645ab89a73cdac9c8247242a82a3ec701a230ce9b90600090a16106fe565b7f00000000000000000000000000000000000000000000000000000000000000006001600160a01b03166342842e0e3061061e6000546001600160a01b031690565b6040516001600160e01b031960e085901b1681526001600160a01b039283166004820152911660248201527f00000000000000000000000000000000000000000000000000000000000000006044820152606401600060405180830381600087803b15801561068c57600080fd5b505af11580156106a0573d6000803e3d6000fd5b505050507f21b5e5af444253dd827b3403805204076c4622331e173f49f94661f4288642547f00000000000000000000000000000000000000000000000000000000000000006040516106f591815260200190565b60405180910390a15b610706611900565b565b600061071342611928565b905090565b7f00000000000000000000000000000000000000000000000000000000000000007f00000000000000000000000000000000000000000000000000000000000000003060008080808080806107756000546001600160a01b031690565b6002549097507f000000000000000000000000000000000000000000000000000000000000000096507f000000000000000000000000000000000000000000000000000000000000000095507f000000000000000000000000000000000000000000000000000000000000000094507f0000000000000000000000000000000000000000000000000000000000000000935064ffffffffff16915061081861182a565b905090919293949596979899565b600080546001600160a01b0316336001600160a01b0316146108485733610467565b60037f0000000000000000000000000000000000000000000000000000000000000000600381111561087c5761087c611f97565b1461089a5760405163170e46a760e01b815260040160405180910390fd5b6108a26117fb565b6108aa61172c565b905080600160008282546108be9190612109565b9091555050600054610904906001600160a01b03166001600160a01b037f00000000000000000000000000000000000000000000000000000000000000001690836118c6565b6040518181527fa1598fb976f7dd9df63fd18699c54a5744a6a95364166bbd0d77a2f6c8438b1f9060200160405180910390a161093f611900565b90565b6000546001600160a01b0316336001600160a01b0316146109635733610467565b61096b6117fb565b610973611a80565b80156109b057507f00000000000000000000000000000000000000000000000000000000000000006001600160a01b0316816001600160a01b0316145b156109ce57604051637511124760e01b815260040160405180910390fd5b80610a5d6109e46000546001600160a01b031690565b6040516370a0823160e01b81523060048201526001600160a01b038416906370a0823190602401602060405180830381865afa158015610a28573d6000803e3d6000fd5b505050506040513d601f19601f82011682018060405250810190610a4c919061211c565b6001600160a01b03841691906118c6565b50610a66611900565b50565b6000546001600160a01b0316336001600160a01b031614610a8a5733610467565b610a926117fb565b600080546040516001600160a01b039091169047908381818185875af1925050503d8060008114610adf576040519150601f19603f3d011682016040523d82523d6000602084013e610ae4565b606091505b5050905080610b0657604051630db2c7f160e31b815260040160405180910390fd5b50610706611900565b6000546001600160a01b0316336001600160a01b031614610b305733610467565b60037f00000000000000000000000000000000000000000000000000000000000000006003811115610b6457610b64611f97565b03610b825760405163170e46a760e01b815260040160405180910390fd5b60025464ffffffffff9081169082161080610baa57504264ffffffffff168164ffffffffff16105b15610bc857604051631f63445360e21b815260040160405180910390fd5b6002805464ffffffffff191664ffffffffff83169081179091556040519081527f1cec69e52d87e8682b625bef9852ff9165537aac445d87a70aae8e6d506b4ca69060200160405180910390a150565b6000805481906001600160a01b0316336001600160a01b031614610c3c5733610467565b60017f00000000000000000000000000000000000000000000000000000000000000006003811115610c7057610c70611f97565b14158015610cb0575060027f00000000000000000000000000000000000000000000000000000000000000006003811115610cad57610cad611f97565b14155b15610cce5760405163170e46a760e01b815260040160405180910390fd5b610cd66117fb565b6000546001600160a01b031660017f00000000000000000000000000000000000000000000000000000000000000006003811115610d1657610d16611f97565b03610e1857604080516080810182527f000000000000000000000000000000000000000000000000000000000000000081526001600160a01b03838116602083019081526001600160801b0383850181815260608501828152955163fc6f786560e01b815294516004860152915183166024850152905181166044840152925190921660648201527f00000000000000000000000000000000000000000000000000000000000000009091169063fc6f78659060840160408051808303816000875af1158015610dea573d6000803e3d6000fd5b505050506040513d601f19601f82011682018060405250810190610e0e9190612135565b90935091506110f1565b604051637ba03aad60e01b81527f000000000000000000000000000000000000000000000000000000000000000060048201526000907f00000000000000000000000000000000000000000000000000000000000000006001600160a01b031690637ba03aad9060240160c060405180830381865afa158015610e9f573d6000803e3d6000fd5b505050506040513d601f19601f82011682018060405250810190610ec39190612189565b5090506000610ed6826000015184611af6565b90506000610ee8836020015185611af6565b60408051600160f81b6020820152601160f81b60218201528151600281830381018252602283018181526082840190945293945092600092916042015b6060815260200190600190039081610f25575050604080516020808201835260008083529251939450610f7f937f00000000000000000000000000000000000000000000000000000000000000009392839283920161227d565b60405160208183030381529060405281600081518110610fa157610fa16122c5565b60200260200101819052508460000151856020015187604051602001610fe7939291906001600160a01b0393841681529183166020830152909116604082015260600190565b60405160208183030381529060405281600181518110611009576110096122c5565b60200260200101819052507f00000000000000000000000000000000000000000000000000000000000000006001600160a01b031663dd46508f83836040516020016110569291906122db565b604051602081830303815290604052426040518363ffffffff1660e01b8152600401611083929190612352565b600060405180830381600087803b15801561109d57600080fd5b505af11580156110b1573d6000803e3d6000fd5b50505050836110c4866000015188611af6565b6110ce9190612374565b9750826110df866020015188611af6565b6110e99190612374565b965050505050505b60408051848152602081018490527f49d512bf9cb224241c05691e73eb9fab078cf350c7dbcbcf66788f1fc0cc8b0b910160405180910390a150611133611900565b9091565b6000546001600160a01b0316336001600160a01b0316146111585733610467565b60007f0000000000000000000000000000000000000000000000000000000000000000600381111561118c5761118c611f97565b146111aa5760405163170e46a760e01b815260040160405180910390fd5b6111b26117fb565b64ffffffffff8116156111c8576111c881610b0f565b81156112565760006111d861182a565b905061120f7f00000000000000000000000000000000000000000000000000000000000000006001600160a01b0316333086611b89565b7f77acf75e237f9aae98f997395832d522bdb695e4a9bd07704936aa889a3667d18161123961182a565b6112439190612374565b60405190815260200160405180910390a1505b61125e611900565b5050565b6000546001600160a01b0316336001600160a01b0316146112835733610467565b61128b6117fb565b60007f000000000000000000000000000000000000000000000000000000000000000060038111156112bf576112bf611f97565b141580156112fe57507f00000000000000000000000000000000000000000000000000000000000000006001600160a01b0316826001600160a01b0316145b801561132957507f000000000000000000000000000000000000000000000000000000000000000081145b1561134757604051637511124760e01b815260040160405180910390fd5b816001600160a01b03166342842e0e306113696000546001600160a01b031690565b6040516001600160e01b031960e085901b1681526001600160a01b0392831660048201529116602482015260448101849052606401600060405180830381600087803b1580156113b857600080fd5b505af11580156113cc573d6000803e3d6000fd5b50505050816001600160a01b03167f0620ef849d1449e38a93ed18dfc53b027a8b5fac0c0cb02d91c4621201d490148260405161140b91815260200190565b60405180910390a261125e611900565b6000806000611428611a80565b15611514577f000000000000000000000000000000000000000000000000000000000000000061145e5750600092839250829150565b604051632590dc9d60e01b81526001600160a01b037f000000000000000000000000000000000000000000000000000000000000000016600482015273772279251b563028a32cD1505e3F2f8485C746D990632590dc9d9060240160c060405180830381865af49250505080156114f2575060408051601f3d908101601f191682019092526114ef91810190612387565b60015b6115025750600092839250829150565b50600198949750929550929350505050565b60017f0000000000000000000000000000000000000000000000000000000000000000600381111561154857611548611f97565b036116165760405163133f757160e31b81527f000000000000000000000000000000000000000000000000000000000000000060048201527f00000000000000000000000000000000000000000000000000000000000000006001600160a01b0316906399fbab889060240161018060405180830381865afa9250505080156115ee575060408051601f3d908101601f191682019092526115eb918101906123fc565b60015b6115fe5750600092839250829150565b5060019e989d50969b50969950505050505050505050565b604051637ba03aad60e01b81527f000000000000000000000000000000000000000000000000000000000000000060048201527f00000000000000000000000000000000000000000000000000000000000000006001600160a01b031690637ba03aad9060240160c060405180830381865afa9250505080156116b6575060408051601f3d908101601f191682019092526116b391810190612189565b60015b6116c65750600092839250829150565b50805160209091015160019591945092509050565b6000546001600160a01b0316336001600160a01b0316146116fc5733610467565b6001600160a01b0381166117235760405163d92e233d60e01b815260040160405180910390fd5b610a6681611bc5565b60008060015461173a610708565b6117449190612374565b90506000611750611a80565b61175b5760006117e3565b6040516370a0823160e01b81523060048201527f00000000000000000000000000000000000000000000000000000000000000006001600160a01b0316906370a0823190602401602060405180830381865afa1580156117bf573d6000803e3d6000fd5b505050506040513d601f19601f820116820180604052508101906117e3919061211c565b90508082106117f257806117f4565b815b9250505090565b611803611cd7565b60027f9b779b17422d0df92223018b32b4d1fa46e071723d6817e2486d003becc55f005b55565b6000611834611a80565b61183e5750600090565b6040516370a0823160e01b81523060048201527f00000000000000000000000000000000000000000000000000000000000000006001600160a01b0316906370a0823190602401602060405180830381865afa1580156118a2573d6000803e3d6000fd5b505050506040513d601f19601f82011682018060405250810190610713919061211c565b6118d38383836001611d22565b6118fb57604051635274afe760e01b81526001600160a01b0384166004820152602401610488565b505050565b60017f9b779b17422d0df92223018b32b4d1fa46e071723d6817e2486d003becc55f00611827565b60007f000000000000000000000000000000000000000000000000000000000000000064ffffffffff168264ffffffffff16101561196857506000919050565b7f000000000000000000000000000000000000000000000000000000000000000064ffffffffff168264ffffffffff16106119c457507f0000000000000000000000000000000000000000000000000000000000000000919050565b611a0e7f00000000000000000000000000000000000000000000000000000000000000007f00000000000000000000000000000000000000000000000000000000000000006124de565b64ffffffffff16611a3f7f0000000000000000000000000000000000000000000000000000000000000000846124de565b611a709064ffffffffff167f00000000000000000000000000000000000000000000000000000000000000006124fb565b611a7a9190612512565b92915050565b6000807f00000000000000000000000000000000000000000000000000000000000000006003811115611ab557611ab5611f97565b1480610713575060037f00000000000000000000000000000000000000000000000000000000000000006003811115611af057611af0611f97565b14905090565b60006001600160a01b03831615611b76576040516370a0823160e01b81526001600160a01b0383811660048301528416906370a0823190602401602060405180830381865afa158015611b4d573d6000803e3d6000fd5b505050506040513d601f19601f82011682018060405250810190611b71919061211c565b611b82565b816001600160a01b0316315b9392505050565b611b97848484846001611d88565b611bbf57604051635274afe760e01b81526001600160a01b0385166004820152602401610488565b50505050565b6000546001600160a01b0316336001600160a01b031614611be65733610467565b6000546001600160a01b0316611bfb82611dfa565b604051634c7ababd60e01b815264ffffffffff7f00000000000000000000000000000000000000000000000000000000000000001660048201526001600160a01b03838116602483015282811660448301527f0000000000000000000000000000000000000000000000000000000000000000811660648301527f00000000000000000000000000000000000000000000000000000000000000001690634c7ababd90608401600060405180830381600087803b158015611cbb57600080fd5b505af1158015611ccf573d6000803e3d6000fd5b505050505050565b611d04600060027f9b779b17422d0df92223018b32b4d1fa46e071723d6817e2486d003becc55f00611e6b565b1561070657604051633ee5aeb560e01b815260040160405180910390fd5b60405163a9059cbb60e01b60008181526001600160a01b038616600452602485905291602083604481808b5af192506001600051148316611d7c578383151615611d6f573d6000823e3d81fd5b6000873b113d1516831692505b60405250949350505050565b6040516323b872dd60e01b60008181526001600160a01b038781166004528616602452604485905291602083606481808c5af192506001600051148316611de8578383151615611ddb573d6000823e3d81fd5b6000883b113d1516831692505b60405250600060605295945050505050565b6000546001600160a01b0316336001600160a01b031614611e1b5733610467565b600080546001600160a01b038381166001600160a01b0319831681178455604051919092169283917f8be0079c531659141344cd1fd0a4f28419497f9722a3daafe3b4186f6b6457e09190a35050565b5414919050565b6001600160a01b0381168114610a6657600080fd5b634e487b7160e01b600052604160045260246000fd5b604051601f8201601f1916810167ffffffffffffffff81118282101715611ec657611ec6611e87565b604052919050565b60008060008060808587031215611ee457600080fd5b8435611eef81611e72565b93506020850135611eff81611e72565b925060408501359150606085013567ffffffffffffffff811115611f2257600080fd5b8501601f81018713611f3357600080fd5b803567ffffffffffffffff811115611f4d57611f4d611e87565b611f60601f8201601f1916602001611e9d565b818152886020838501011115611f7557600080fd5b8160208401602083013760006020838301015280935050505092959194509250565b634e487b7160e01b600052602160045260246000fd5b60048110611fcb57634e487b7160e01b600052602160045260246000fd5b9052565b6101408101611fde828d611fad565b64ffffffffff9a8b1660208301526001600160a01b03998a1660408301529789166060820152958816608087015260a08601949094529190951660c084015293851660e08301529290931661010084015261012090920152919050565b60006020828403121561204d57600080fd5b8135611b8281611e72565b803564ffffffffff8116811461206d57600080fd5b919050565b60006020828403121561208457600080fd5b611b8282612058565b60208101611a7a8284611fad565b600080604083850312156120ae57600080fd5b823591506120be60208401612058565b90509250929050565b600080604083850312156120da57600080fd5b82356120e581611e72565b946020939093013593505050565b634e487b7160e01b600052601160045260246000fd5b80820180821115611a7a57611a7a6120f3565b60006020828403121561212e57600080fd5b5051919050565b6000806040838503121561214857600080fd5b505080516020909101519092909150565b805161206d81611e72565b805162ffffff8116811461206d57600080fd5b8051600281900b811461206d57600080fd5b60008082840360c081121561219d57600080fd5b60a08112156121ab57600080fd5b5060405160a0810167ffffffffffffffff811182821017156121cf576121cf611e87565b60405283516121dd81611e72565b815260208401516121ed81611e72565b60208201526121fe60408501612164565b604082015261220f60608501612177565b6060820152608084015161222281611e72565b608082015260a0939093015192949293505050565b6000815180845260005b8181101561225d57602081850181015186830182015201612241565b506000602082860101526020601f19601f83011685010191505092915050565b8581528460208201526001600160801b03841660408201526001600160801b038316606082015260a0608082015260006122ba60a0830184612237565b979650505050505050565b634e487b7160e01b600052603260045260246000fd5b6040815260006122ee6040830185612237565b828103602084015280845180835260208301915060208160051b8401016020870160005b8381101561234457601f1986840301855261232e838351612237565b6020958601959093509190910190600101612312565b509098975050505050505050565b6040815260006123656040830185612237565b90508260208301529392505050565b81810381811115611a7a57611a7a6120f3565b60008060008060008060c087890312156123a057600080fd5b86516123ab81611e72565b60208801519096506123bc81611e72565b6040880151606089015160808a015160a0909a0151989b929a5090989097909650945092505050565b80516001600160801b038116811461206d57600080fd5b6000806000806000806000806000806000806101808d8f03121561241f57600080fd5b8c516bffffffffffffffffffffffff8116811461243b57600080fd5b9b5061244960208e01612159565b9a5061245760408e01612159565b995061246560608e01612159565b985061247360808e01612164565b975061248160a08e01612177565b965061248f60c08e01612177565b955061249d60e08e016123e5565b6101008e01516101208f0151919650945092506124bd6101408e016123e5565b91506124cc6101608e016123e5565b90509295989b509295989b509295989b565b64ffffffffff8281168282160390811115611a7a57611a7a6120f3565b8082028115828204841417611a7a57611a7a6120f3565b60008261252f57634e487b7160e01b600052601260045260246000fd5b50049056fea264697066735822122085e0ddf975b0daab9519033e7bf8501353d1485be0ffa707c7e2bb48baa4285564736f6c634300081e00339b779b17422d0df92223018b32b4d1fa46e071723d6817e2486d003becc55f00a26469706673582212207df0597906a028d5eb67d392523e2c2369ad7c378130dbff305c8858f2cce89064736f6c634300081e0033",
  "deployedBytecode": "0x6080604052600436106101355760003560e01c80637cf4105d116100ab578063a28a1f711161006f578063a28a1f7114610372578063a5e4122a146103af578063a681711714610407578063b3f006741461043d578063efdcd97414610461578063f2fde38b1461048157600080fd5b80637cf4105d146102bd57806383a1364a146102d05780638da5cb5b146102fd5780638ebfc7961461032f5780639d3518771461034f57600080fd5b80634c7ababd116100fd5780634c7ababd146101f35780634cf1115d146102135780634db1647c1461023157806360fd0989146102445780636a5dab9f1461027d57806375e885a21461029d57600080fd5b80630307535e1461013a57806322df78d01461015c57806326f3ed2b1461018c5780632c31fb08146101c05780633f6738a9146101d3575b600080fd5b34801561014657600080fd5b5061015a610155366004611b9a565b6104a1565b005b34801561016857600080fd5b50600054600160a01b900460ff165b60405190151581526020015b60405180910390f35b34801561019857600080fd5b50600054600160a81b900464ffffffffff1660405164ffffffffff9091168152602001610183565b61015a6101ce366004611be4565b610576565b3480156101df57600080fd5b5061015a6101ee366004611c26565b61084a565b3480156101ff57600080fd5b5061015a61020e366004611c3f565b6108bd565b34801561021f57600080fd5b50600554604051908152602001610183565b61015a61023f366004611c9b565b610b3e565b34801561025057600080fd5b5061017761025f366004611d10565b6001600160a01b031660009081526007602052604090205460ff1690565b34801561028957600080fd5b5061015a610298366004611d3b565b610e1f565b3480156102a957600080fd5b5061015a6102b8366004611d65565b610e5e565b61015a6102cb366004611da5565b610f9a565b3480156102dc57600080fd5b506102f06102eb366004611d10565b611266565b6040516101839190611df6565b34801561030957600080fd5b506000546001600160a01b03165b6040516001600160a01b039091168152602001610183565b34801561033b57600080fd5b5061015a61034a366004611e40565b611300565b34801561035b57600080fd5b5060065460405161ffff9091168152602001610183565b34801561037e57600080fd5b5061031761038d366004611e79565b64ffffffffff166000908152600160205260409020546001600160a01b031690565b3480156103bb57600080fd5b506103f96103ca366004611d10565b6001600160a01b031660009081526003602090815260408083205460049092529091205460ff91821692911690565b604051610183929190611ece565b34801561041357600080fd5b50610427610422366004611e79565b61134c565b6040516101839a99989796959493929190611eeb565b34801561044957600080fd5b506006546201000090046001600160a01b0316610317565b34801561046d57600080fd5b5061015a61047c366004611d10565b611413565b34801561048d57600080fd5b5061015a61049c366004611d10565b6114cd565b6000546001600160a01b0316336001600160a01b0316146104e857335b60405163060296c760e31b81526001600160a01b0390911660048201526024015b60405180910390fd5b6101f461ffff8216111561050f57604051630b38148960e21b815260040160405180910390fd5b6006805461ffff191661ffff831690811791829055600554604080519182526020820192909252620100009092046001600160a01b0316917f63164921add8563148a9f0dba76dc04da8593cf105f95aef2a1053b57fba523e91015b60405180910390a250565b600054600160a01b900460ff166105a05760405163125b940760e21b815260040160405180910390fd5b6105a8611521565b6001600160a01b03831660009081526004602052604090205460ff166105ec57604051630ebdd12f60e21b81526001600160a01b03841660048201526024016104df565b6001600160a01b038316600090815260036020526040812054815460ff9091169190600160a81b900464ffffffffff1681601561062883611f6d565b91906101000a81548164ffffffffff021916908364ffffffffff16021790555090506106538161153d565b60003082338589898960008060008060405161066e90611b76565b6106829b9a99989796959493929190611f94565b604051809103906000f08015801561069e573d6000803e3d6000fd5b5064ffffffffff8316600090815260016020526040902080546001600160a01b0319166001600160a01b038381169190911790915590915086166342842e0e336040516001600160e01b031960e084901b1681526001600160a01b039182166004820152908416602482015260448101889052606401600060405180830381600087803b15801561072e57600080fd5b505af1158015610742573d6000803e3d6000fd5b50505050610751828783611669565b600080826001600160a01b031663d95bd6c96040518163ffffffff1660e01b8152600401606060405180830381865afa158015610792573d6000803e3d6000fd5b505050506040513d601f19601f820116820180604052508101906107b69190612017565b92509250506107c684838361172b565b806001600160a01b0316826001600160a01b0316896001600160a01b03167fb0e93c0715a252ef3a37bd0ac4f212ad035f43b42479c6cbc396b3368e34384187898c61080f3390565b8d604051610821959493929190612059565b60405180910390a450505050506108456001600080516020614d4883398151915255565b505050565b6000546001600160a01b0316336001600160a01b03161461086b57336104be565b60058190556006546040805183815261ffff83166020820152620100009092046001600160a01b0316917f63164921add8563148a9f0dba76dc04da8593cf105f95aef2a1053b57fba523e910161056b565b64ffffffffff84166000908152600160205260409020546001600160a01b0316336001600160a01b03161461091457604051630db9d21960e21b815264ffffffffff851660048201523360248201526044016104df565b806001600160a01b0316826001600160a01b031614610a7c576001600160a01b0382166000908152600260205260408120905b8154811015610a79578564ffffffffff1682828154811061096a5761096a6120a0565b90600052602060002090600691828204019190066005029054906101000a900464ffffffffff1664ffffffffff1603610a7157815482906109ad906001906120b6565b815481106109bd576109bd6120a0565b90600052602060002090600691828204019190066005029054906101000a900464ffffffffff168282815481106109f6576109f66120a0565b90600052602060002090600691828204019190066005026101000a81548164ffffffffff021916908364ffffffffff16021790555081805480610a3b57610a3b6120cf565b60019003818190600052602060002090600691828204019190066005026101000a81549064ffffffffff02191690559055610a79565b600101610947565b50505b6001600160a01b0383166000908152600260205260408120905b8154811015610afb578564ffffffffff16828281548110610ab957610ab96120a0565b90600052602060002090600691828204019190066005029054906101000a900464ffffffffff1664ffffffffff1603610af3575050610b38565b600101610a96565b5080546001810182556000918252602090912060068083049091018054919092066005026101000a64ffffffffff81810219909216918716021790555b50505050565b600054600160a01b900460ff16610b685760405163125b940760e21b815260040160405180910390fd5b610b70611521565b84600003610b9157604051631f2a200560e01b815260040160405180910390fd5b8164ffffffffff168464ffffffffff16101580610bbb57508364ffffffffff168364ffffffffff16105b80610bd357508164ffffffffff168364ffffffffff16115b80610bec57504264ffffffffff168264ffffffffff1611155b15610c0a57604051631f8136eb60e31b815260040160405180910390fd5b60008054600160a81b900464ffffffffff16816015610c2883611f6d565b91906101000a81548164ffffffffff021916908364ffffffffff16021790555090506000610c58828989866117f1565b9050600030833360038c60008a8d8d8d8b604051610c7590611b76565b610c899b9a99989796959493929190611f94565b604051809103906000f080158015610ca5573d6000803e3d6000fd5b5064ffffffffff8416600090815260016020526040902080546001600160a01b0319166001600160a01b0383161790559050610ced336001600160a01b038b16908385611a2b565b610cf8838a83611669565b600080826001600160a01b031663d95bd6c96040518163ffffffff1660e01b8152600401606060405180830381865afa158015610d39573d6000803e3d6000fd5b505050506040513d601f19601f82011682018060405250810190610d5d9190612017565b9250925050610d6d85838361172b565b806001600160a01b0316826001600160a01b03168c6001600160a01b03167f202cea0f034e4899748fca23b39f2354d17c79cfdb27b00f88bc9bdfbe672aad88610db43390565b6040805164ffffffffff93841681526001600160a01b03909216602083015281018a9052818f166060820152818e166080820152908c1660a082015260c00160405180910390a45050505050610e176001600080516020614d4883398151915255565b505050505050565b6000546001600160a01b0316336001600160a01b031614610e4057336104be565b60008054911515600160a01b0260ff60a01b19909216919091179055565b6000546001600160a01b0316336001600160a01b031614610e7f57336104be565b6001600160a01b038316610ea65760405163d92e233d60e01b815260040160405180910390fd5b6001826003811115610eba57610eba611e96565b14158015610eda57506002826003811115610ed757610ed7611e96565b14155b15610ef857604051631aa81af160e21b815260040160405180910390fd5b6001600160a01b03831660009081526003602081905260409091208054849260ff19909116906001908490811115610f3257610f32611e96565b02179055506001600160a01b03831660008181526004602052604090819020805460ff1916841515179055517fad74493cbf6a5b49fc5f2893a2f5eb37f0acf626529fbc3ca3c88b15bf548e5d90610f8d9085908590611ece565b60405180910390a2505050565b600054600160a01b900460ff16610fc45760405163125b940760e21b815260040160405180910390fd5b610fcc611521565b82600003610fed57604051631f2a200560e01b815260040160405180910390fd5b60008054600160a81b900464ffffffffff1681601561100b83611f6d565b91906101000a81548164ffffffffff021916908364ffffffffff1602179055509050600061103b828787866117f1565b9050600030833360008a60008a60008060008060405161105a90611b76565b61106e9b9a99989796959493929190611f94565b604051809103906000f08015801561108a573d6000803e3d6000fd5b5064ffffffffff8416600090815260016020526040902080546001600160a01b0319166001600160a01b03831617905590506110d2336001600160a01b038916908385611a2b565b6110dd838883611669565b600080826001600160a01b031663d95bd6c96040518163ffffffff1660e01b8152600401606060405180830381865afa15801561111e573d6000803e3d6000fd5b505050506040513d601f19601f820116820180604052508101906111429190612017565b925092505061115285838361172b565b806001600160a01b0316826001600160a01b03168a6001600160a01b03167f531cba00a411ade37b4ca8175d92c94149f19536bd8e5a83d581aa7f040d192e886111993390565b8e6001600160a01b03166370a082318a6040518263ffffffff1660e01b81526004016111d491906001600160a01b0391909116815260200190565b602060405180830381865afa1580156111f1573d6000803e3d6000fd5b505050506040513d601f19601f8201168201806040525081019061121591906120e5565b6040805164ffffffffff94851681526001600160a01b039093166020840152820152908c16606082015260800160405180910390a45050505050610b386001600080516020614d4883398151915255565b6001600160a01b0381166000908152600260209081526040918290208054835181840281018401909452808452606093928301828280156112f457602002820191906000526020600020906000905b82829054906101000a900464ffffffffff1664ffffffffff16815260200190600501906020826004010492830192600103820291508084116112b55790505b50505050509050919050565b6000546001600160a01b0316336001600160a01b03161461132157336104be565b6001600160a01b03919091166000908152600760205260409020805460ff1916911515919091179055565b600080600080600080600080600080600160008c64ffffffffff1664ffffffffff16815260200190815260200160002060009054906101000a90046001600160a01b03166001600160a01b0316634c02bf0b6040518163ffffffff1660e01b815260040161014060405180830381865afa1580156113ce573d6000803e3d6000fd5b505050506040513d601f19601f820116820180604052508101906113f291906120fe565b99509950995099509950995099509950995099509193959799509193959799565b6000546001600160a01b0316336001600160a01b03161461143457336104be565b6001600160a01b03811661145b5760405163d92e233d60e01b815260040160405180910390fd5b600680546001600160a01b038381166201000090810262010000600160b01b031984168117948590556005546040805191825261ffff92831692909516919091176020820152930416917f63164921add8563148a9f0dba76dc04da8593cf105f95aef2a1053b57fba523e910161056b565b6000546001600160a01b0316336001600160a01b0316146114ee57336104be565b6001600160a01b0381166115155760405163d92e233d60e01b815260040160405180910390fd5b61151e81611a61565b50565b611529611ad2565b6002600080516020614d4883398151915255565b3360009081526007602052604090205460ff161561157457341561151e5760405163b000960760e01b815260040160405180910390fd5b60055434146115a35760055460405163082fc47b60e21b815260048101919091523460248201526044016104df565b341561151e576006546040516000916201000090046001600160a01b03169034908381818185875af1925050503d80600081146115fc576040519150601f19603f3d011682016040523d82523d6000602084013e611601565b606091505b505090508061162357604051630db2c7f160e31b815260040160405180910390fd5b604080516001815234602082015264ffffffffff8416917f599e0e7458510fc6240982cbfeb3a6d640707bc3457603c774d41cbe0c96f628910160405180910390a25050565b3360009081526002602090815260408083208054600180820183559185528385206006808304909101805464ffffffffff9a8b16600594849006850261010090810a828102908e0219909316929092179092556001600160a01b03998a16885285882080548087018255908952878920848204018054918590068602830a808502908e0219909216919091179055979098168652928520805492830181558552929093208184040180549190930690910290920a928302929093021916179055565b6001600160a01b0382161561178b576001600160a01b038216600090815260026020908152604082208054600181018255908352912060068083049091018054919092066005026101000a64ffffffffff81810219909216918616021790555b6001600160a01b03811615610845576001600160a01b0316600090815260026020908152604082208054600181018255908352912060068083049091018054919092066005026101000a64ffffffffff8181021990921694909116029290921790915550565b336000908152600760205260408120543415159060ff161561183557801561182c5760405163b000960760e01b815260040160405180910390fd5b83915050611a23565b801561193057600554341461186a5760055460405163082fc47b60e21b815260048101919091523460248201526044016104df565b6006546040516000916201000090046001600160a01b03169034908381818185875af1925050503d80600081146118bd576040519150601f19603f3d011682016040523d82523d6000602084013e6118c2565b606091505b50509050806118e457604051630db2c7f160e31b815260040160405180910390fd5b604080516001815234602082015264ffffffffff8916917f599e0e7458510fc6240982cbfeb3a6d640707bc3457603c774d41cbe0c96f628910160405180910390a28492505050611a23565b60065461ffff8085169116111561196c576006546040516340a0962960e11b815261ffff918216600482015290841660248201526044016104df565b6006546000906127109060019082906119899061ffff16896121c9565b61199391906121e0565b61199d91906120b6565b6119a791906121f3565b90506119b381866120b6565b92508015611a20576119dc336006546001600160a01b0389811692916201000090041684611a2b565b60408051600081526020810183905264ffffffffff8916917f599e0e7458510fc6240982cbfeb3a6d640707bc3457603c774d41cbe0c96f628910160405180910390a25b50505b949350505050565b611a39848484846001611b04565b610b3857604051635274afe760e01b81526001600160a01b03851660048201526024016104df565b6000546001600160a01b0316336001600160a01b031614611a8257336104be565b600080546001600160a01b038381166001600160a01b0319831681178455604051919092169283917f8be0079c531659141344cd1fd0a4f28419497f9722a3daafe3b4186f6b6457e09190a35050565b600080516020614d4883398151915254600203611b0257604051633ee5aeb560e01b815260040160405180910390fd5b565b6040516323b872dd60e01b60008181526001600160a01b038781166004528616602452604485905291602083606481808c5af192506001600051148316611b64578383151615611b57573d6000823e3d81fd5b6000883b113d1516831692505b60405250600060605295945050505050565b612b328061221683390190565b803561ffff81168114611b9557600080fd5b919050565b600060208284031215611bac57600080fd5b611bb582611b83565b9392505050565b6001600160a01b038116811461151e57600080fd5b64ffffffffff8116811461151e57600080fd5b600080600060608486031215611bf957600080fd5b8335611c0481611bbc565b9250602084013591506040840135611c1b81611bd1565b809150509250925092565b600060208284031215611c3857600080fd5b5035919050565b60008060008060808587031215611c5557600080fd5b8435611c6081611bd1565b93506020850135611c7081611bbc565b92506040850135611c8081611bbc565b91506060850135611c9081611bbc565b939692955090935050565b60008060008060008060c08789031215611cb457600080fd5b8635611cbf81611bbc565b9550602087013594506040870135611cd681611bd1565b93506060870135611ce681611bd1565b92506080870135611cf681611bd1565b9150611d0460a08801611b83565b90509295509295509295565b600060208284031215611d2257600080fd5b8135611bb581611bbc565b801515811461151e57600080fd5b600060208284031215611d4d57600080fd5b8135611bb581611d2d565b6004811061151e57600080fd5b600080600060608486031215611d7a57600080fd5b8335611d8581611bbc565b92506020840135611d9581611d58565b91506040840135611c1b81611d2d565b60008060008060808587031215611dbb57600080fd5b8435611dc681611bbc565b9350602085013592506040850135611ddd81611bd1565b9150611deb60608601611b83565b905092959194509250565b602080825282518282018190526000918401906040840190835b81811015611e3557835164ffffffffff16835260209384019390920191600101611e10565b509095945050505050565b60008060408385031215611e5357600080fd5b8235611e5e81611bbc565b91506020830135611e6e81611d2d565b809150509250929050565b600060208284031215611e8b57600080fd5b8135611bb581611bd1565b634e487b7160e01b600052602160045260246000fd5b60048110611eca57634e487b7160e01b600052602160045260246000fd5b9052565b60408101611edc8285611eac565b82151560208301529392505050565b6101408101611efa828d611eac565b64ffffffffff9a8b1660208301526001600160a01b03998a1660408301529789166060820152958816608087015260a08601949094529190951660c084015293851660e08301529290931661010084015261012090920152919050565b634e487b7160e01b600052601160045260246000fd5b600064ffffffffff821664ffffffffff8103611f8b57611f8b611f57565b60010192915050565b6001600160a01b038c8116825264ffffffffff8c1660208301528a1660408201526101608101611fc7606083018b611eac565b6001600160a01b0398909816608082015260a081019690965264ffffffffff94851660c087015292841660e086015290831661010085015290911661012083015261014090910152949350505050565b60008060006060848603121561202c57600080fd5b835161203781611d2d565b602085015190935061204881611bbc565b6040850151909250611c1b81611bbc565b64ffffffffff8616815260a081016120746020830187611eac565b60408201949094526001600160a01b0392909216606083015264ffffffffff1660809091015292915050565b634e487b7160e01b600052603260045260246000fd5b818103818111156120c9576120c9611f57565b92915050565b634e487b7160e01b600052603160045260246000fd5b6000602082840312156120f757600080fd5b5051919050565b6000806000806000806000806000806101408b8d03121561211e57600080fd5b8a5161212981611d58565b60208c0151909a5061213a81611bd1565b60408c015190995061214b81611bbc565b60608c015190985061215c81611bbc565b60808c015190975061216d81611bbc565b60a08c015160c08d0151919750955061218581611bbc565b60e08c015190945061219681611bd1565b6101008c01519093506121a881611bd1565b8092505060006101208c01519050809150509295989b9194979a5092959850565b80820281158282048414176120c9576120c9611f57565b808201808211156120c9576120c9611f57565b60008261221057634e487b7160e01b600052601260045260246000fd5b50049056fe61020060405234801561001157600080fd5b50604051612b32380380612b32833981016040819052610030916102f9565b600080546001600160a01b0319166001600160a01b038b1690811782556040518b92907f8be0079c531659141344cd1fd0a4f28419497f9722a3daafe3b4186f6b6457e0908290a35060017f9b779b17422d0df92223018b32b4d1fa46e071723d6817e2486d003becc55f00556001600160a01b0389166100c45760405163d92e233d60e01b815260040160405180910390fd5b4264ffffffffff168564ffffffffff16116100f25760405163e0aa70c960e01b815260040160405180910390fd5b60006003896003811115610108576101086103c4565b1490506000818061012a575060008a6003811115610128576101286103c4565b145b90508115610192578364ffffffffff168664ffffffffff1610158061015c57508564ffffffffff168564ffffffffff16105b8061017457508364ffffffffff168564ffffffffff16115b1561019257604051631f8136eb60e31b815260040160405180910390fd5b6001600160a01b038d1660a05264ffffffffff8c16610120528960038111156101bd576101bd6103c4565b60808160038111156101d1576101d16103c4565b9052506001600160a01b0389811660c05260e08990528b16610100524264ffffffffff908116610140526002805464ffffffffff19169189169190911790558080156102945750604051630f24ca7d60e01b81526001600160a01b038a16600482015273__$f781bb3d3060cc7c00f7d655d3b188f1f9$__90630f24ca7d90602401602060405180830381865af4158015610270573d6000803e3d6000fd5b505050506040513d601f19601f8201168201806040525081019061029491906103da565b151561016052505064ffffffffff938416610180529183166101a0529091166101c0526101e0525061040395505050505050565b80516001600160a01b03811681146102df57600080fd5b919050565b805164ffffffffff811681146102df57600080fd5b60008060008060008060008060008060006101608c8e03121561031b57600080fd5b6103248c6102c8565b9a5061033260208d016102e4565b995061034060408d016102c8565b985060608c01516004811061035457600080fd5b975061036260808d016102c8565b60a08d0151909750955061037860c08d016102e4565b945061038660e08d016102e4565b93506103956101008d016102e4565b92506103a46101208d016102e4565b915060006101408d01519050809150509295989b509295989b9093969950565b634e487b7160e01b600052602160045260246000fd5b6000602082840312156103ec57600080fd5b815180151581146103fc57600080fd5b9392505050565b60805160a05160c05160e05161010051610120516101405161016051610180516101a0516101c0516101e05161256a6105c860003960008181610300015281816119a00152611a4c0152600081816102d70152818161196a01526119ea0152600081816102af015261192c01526000818161028a015281816119c90152611a1a0152600061142f015260006107e601526000818161073b0152611c100152600081816107c30152611c4f01526000818161064b015281816106c7015281816107a001528181610d2701528181610e2701528181610f54015281816113070152818161155c0152611625015260008181610587015281816105de0152818161077d015281816108dd0152818161097c01528181610da001528181610e5001528181611016015281816111df015281816112ca01528181611475015281816115820152818161164b01528181611770015261185301526000611c7701526000818161036d0152818161049d0152818161052b0152818161071a0152818161084c01528181610b3401528181610c4001528181610c7d01528181610ce60152818161115c0152818161128f0152818161151801528181611a850152611ac0015261256a6000f3fe60806040526004361061010d5760003560e01c8063ab67d5ee11610095578063d88e7f4e11610064578063d88e7f4e14610399578063d8fc6519146103b9578063d95bd6c9146103d9578063f2fde38b14610415578063fbccedae1461043557600080fd5b8063ab67d5ee1461024e578063bcc4e4ab1461026e578063c879657214610334578063cb248b861461035e57600080fd5b80634c02bf0b116100dc5780634c02bf0b146101b157806386d1a69f146101dc57806389476069146101f15780638da5cb5b14610211578063a0ef91df1461023957600080fd5b8063150b7a02146101195780633ccfd60b1461016257806344b1231f1461017957806345d30a171461019c57600080fd5b3661011457005b600080fd5b34801561012557600080fd5b50610144610134366004611ece565b630a85bd0160e11b949350505050565b6040516001600160e01b031990911681526020015b60405180910390f35b34801561016e57600080fd5b5061017761044a565b005b34801561018557600080fd5b5061018e610708565b604051908152602001610159565b3480156101a857600080fd5b5060015461018e565b3480156101bd57600080fd5b506101c6610718565b6040516101599a99989796959493929190611fcf565b3480156101e857600080fd5b5061018e610826565b3480156101fd57600080fd5b5061017761020c36600461203b565b610942565b34801561021d57600080fd5b506000546040516001600160a01b039091168152602001610159565b34801561024557600080fd5b50610177610a69565b34801561025a57600080fd5b50610177610269366004612072565b610b0f565b34801561027a57600080fd5b506001546040805164ffffffffff7f0000000000000000000000000000000000000000000000000000000000000000811682527f0000000000000000000000000000000000000000000000000000000000000000811660208301527f000000000000000000000000000000000000000000000000000000000000000016918101919091527f00000000000000000000000000000000000000000000000000000000000000006060820152608081019190915260a001610159565b34801561034057600080fd5b50610349610c18565b60408051928352602083019190915201610159565b34801561036a57600080fd5b507f0000000000000000000000000000000000000000000000000000000000000000604051610159919061208d565b3480156103a557600080fd5b506101776103b436600461209b565b611137565b3480156103c557600080fd5b506101776103d43660046120c7565b611262565b3480156103e557600080fd5b506103ee61141b565b6040805193151584526001600160a01b039283166020850152911690820152606001610159565b34801561042157600080fd5b5061017761043036600461203b565b6116db565b34801561044157600080fd5b5061018e61172c565b6000546001600160a01b0316336001600160a01b03161461049157335b60405163060296c760e31b81526001600160a01b0390911660048201526024015b60405180910390fd5b6104996117fb565b60037f000000000000000000000000000000000000000000000000000000000000000060038111156104cd576104cd611f97565b036104eb5760405163170e46a760e01b815260040160405180910390fd5b60025464ffffffffff90811642909116101561052757600254604051632869611760e11b815264ffffffffff9091166004820152602401610488565b60007f0000000000000000000000000000000000000000000000000000000000000000600381111561055b5761055b611f97565b036105dc576105ae6105756000546001600160a01b031690565b61057d61182a565b6001600160a01b037f00000000000000000000000000000000000000000000000000000000000000001691906118c6565b6040517f75c111ce67858e12d7a8820645ab89a73cdac9c8247242a82a3ec701a230ce9b90600090a16106fe565b7f00000000000000000000000000000000000000000000000000000000000000006001600160a01b03166342842e0e3061061e6000546001600160a01b031690565b6040516001600160e01b031960e085901b1681526001600160a01b039283166004820152911660248201527f00000000000000000000000000000000000000000000000000000000000000006044820152606401600060405180830381600087803b15801561068c57600080fd5b505af11580156106a0573d6000803e3d6000fd5b505050507f21b5e5af444253dd827b3403805204076c4622331e173f49f94661f4288642547f00000000000000000000000000000000000000000000000000000000000000006040516106f591815260200190565b60405180910390a15b610706611900565b565b600061071342611928565b905090565b7f00000000000000000000000000000000000000000000000000000000000000007f00000000000000000000000000000000000000000000000000000000000000003060008080808080806107756000546001600160a01b031690565b6002549097507f000000000000000000000000000000000000000000000000000000000000000096507f000000000000000000000000000000000000000000000000000000000000000095507f000000000000000000000000000000000000000000000000000000000000000094507f0000000000000000000000000000000000000000000000000000000000000000935064ffffffffff16915061081861182a565b905090919293949596979899565b600080546001600160a01b0316336001600160a01b0316146108485733610467565b60037f0000000000000000000000000000000000000000000000000000000000000000600381111561087c5761087c611f97565b1461089a5760405163170e46a760e01b815260040160405180910390fd5b6108a26117fb565b6108aa61172c565b905080600160008282546108be9190612109565b9091555050600054610904906001600160a01b03166001600160a01b037f00000000000000000000000000000000000000000000000000000000000000001690836118c6565b6040518181527fa1598fb976f7dd9df63fd18699c54a5744a6a95364166bbd0d77a2f6c8438b1f9060200160405180910390a161093f611900565b90565b6000546001600160a01b0316336001600160a01b0316146109635733610467565b61096b6117fb565b610973611a80565b80156109b057507f00000000000000000000000000000000000000000000000000000000000000006001600160a01b0316816001600160a01b0316145b156109ce57604051637511124760e01b815260040160405180910390fd5b80610a5d6109e46000546001600160a01b031690565b6040516370a0823160e01b81523060048201526001600160a01b038416906370a0823190602401602060405180830381865afa158015610a28573d6000803e3d6000fd5b505050506040513d601f19601f82011682018060405250810190610a4c919061211c565b6001600160a01b03841691906118c6565b50610a66611900565b50565b6000546001600160a01b0316336001600160a01b031614610a8a5733610467565b610a926117fb565b600080546040516001600160a01b039091169047908381818185875af1925050503d8060008114610adf576040519150601f19603f3d011682016040523d82523d6000602084013e610ae4565b606091505b5050905080610b0657604051630db2c7f160e31b815260040160405180910390fd5b50610706611900565b6000546001600160a01b0316336001600160a01b031614610b305733610467565b60037f00000000000000000000000000000000000000000000000000000000000000006003811115610b6457610b64611f97565b03610b825760405163170e46a760e01b815260040160405180910390fd5b60025464ffffffffff9081169082161080610baa57504264ffffffffff168164ffffffffff16105b15610bc857604051631f63445360e21b815260040160405180910390fd5b6002805464ffffffffff191664ffffffffff83169081179091556040519081527f1cec69e52d87e8682b625bef9852ff9165537aac445d87a70aae8e6d506b4ca69060200160405180910390a150565b6000805481906001600160a01b0316336001600160a01b031614610c3c5733610467565b60017f00000000000000000000000000000000000000000000000000000000000000006003811115610c7057610c70611f97565b14158015610cb0575060027f00000000000000000000000000000000000000000000000000000000000000006003811115610cad57610cad611f97565b14155b15610cce5760405163170e46a760e01b815260040160405180910390fd5b610cd66117fb565b6000546001600160a01b031660017f00000000000000000000000000000000000000000000000000000000000000006003811115610d1657610d16611f97565b03610e1857604080516080810182527f000000000000000000000000000000000000000000000000000000000000000081526001600160a01b03838116602083019081526001600160801b0383850181815260608501828152955163fc6f786560e01b815294516004860152915183166024850152905181166044840152925190921660648201527f00000000000000000000000000000000000000000000000000000000000000009091169063fc6f78659060840160408051808303816000875af1158015610dea573d6000803e3d6000fd5b505050506040513d601f19601f82011682018060405250810190610e0e9190612135565b90935091506110f1565b604051637ba03aad60e01b81527f000000000000000000000000000000000000000000000000000000000000000060048201526000907f00000000000000000000000000000000000000000000000000000000000000006001600160a01b031690637ba03aad9060240160c060405180830381865afa158015610e9f573d6000803e3d6000fd5b505050506040513d601f19601f82011682018060405250810190610ec39190612189565b5090506000610ed6826000015184611af6565b90506000610ee8836020015185611af6565b60408051600160f81b6020820152601160f81b60218201528151600281830381018252602283018181526082840190945293945092600092916042015b6060815260200190600190039081610f25575050604080516020808201835260008083529251939450610f7f937f00000000000000000000000000000000000000000000000000000000000000009392839283920161227d565b60405160208183030381529060405281600081518110610fa157610fa16122c5565b60200260200101819052508460000151856020015187604051602001610fe7939291906001600160a01b0393841681529183166020830152909116604082015260600190565b60405160208183030381529060405281600181518110611009576110096122c5565b60200260200101819052507f00000000000000000000000000000000000000000000000000000000000000006001600160a01b031663dd46508f83836040516020016110569291906122db565b604051602081830303815290604052426040518363ffffffff1660e01b8152600401611083929190612352565b600060405180830381600087803b15801561109d57600080fd5b505af11580156110b1573d6000803e3d6000fd5b50505050836110c4866000015188611af6565b6110ce9190612374565b9750826110df866020015188611af6565b6110e99190612374565b965050505050505b60408051848152602081018490527f49d512bf9cb224241c05691e73eb9fab078cf350c7dbcbcf66788f1fc0cc8b0b910160405180910390a150611133611900565b9091565b6000546001600160a01b0316336001600160a01b0316146111585733610467565b60007f0000000000000000000000000000000000000000000000000000000000000000600381111561118c5761118c611f97565b146111aa5760405163170e46a760e01b815260040160405180910390fd5b6111b26117fb565b64ffffffffff8116156111c8576111c881610b0f565b81156112565760006111d861182a565b905061120f7f00000000000000000000000000000000000000000000000000000000000000006001600160a01b0316333086611b89565b7f77acf75e237f9aae98f997395832d522bdb695e4a9bd07704936aa889a3667d18161123961182a565b6112439190612374565b60405190815260200160405180910390a1505b61125e611900565b5050565b6000546001600160a01b0316336001600160a01b0316146112835733610467565b61128b6117fb565b60007f000000000000000000000000000000000000000000000000000000000000000060038111156112bf576112bf611f97565b141580156112fe57507f00000000000000000000000000000000000000000000000000000000000000006001600160a01b0316826001600160a01b0316145b801561132957507f000000000000000000000000000000000000000000000000000000000000000081145b1561134757604051637511124760e01b815260040160405180910390fd5b816001600160a01b03166342842e0e306113696000546001600160a01b031690565b6040516001600160e01b031960e085901b1681526001600160a01b0392831660048201529116602482015260448101849052606401600060405180830381600087803b1580156113b857600080fd5b505af11580156113cc573d6000803e3d6000fd5b50505050816001600160a01b03167f0620ef849d1449e38a93ed18dfc53b027a8b5fac0c0cb02d91c4621201d490148260405161140b91815260200190565b60405180910390a261125e611900565b6000806000611428611a80565b15611514577f000000000000000000000000000000000000000000000000000000000000000061145e5750600092839250829150565b604051632590dc9d60e01b81526001600160a01b037f000000000000000000000000000000000000000000000000000000000000000016600482015273__$f781bb3d3060cc7c00f7d655d3b188f1f9$__90632590dc9d9060240160c060405180830381865af49250505080156114f2575060408051601f3d908101601f191682019092526114ef91810190612387565b60015b6115025750600092839250829150565b50600198949750929550929350505050565b60017f0000000000000000000000000000000000000000000000000000000000000000600381111561154857611548611f97565b036116165760405163133f757160e31b81527f000000000000000000000000000000000000000000000000000000000000000060048201527f00000000000000000000000000000000000000000000000000000000000000006001600160a01b0316906399fbab889060240161018060405180830381865afa9250505080156115ee575060408051601f3d908101601f191682019092526115eb918101906123fc565b60015b6115fe5750600092839250829150565b5060019e989d50969b50969950505050505050505050565b604051637ba03aad60e01b81527f000000000000000000000000000000000000000000000000000000000000000060048201527f00000000000000000000000000000000000000000000000000000000000000006001600160a01b031690637ba03aad9060240160c060405180830381865afa9250505080156116b6575060408051601f3d908101601f191682019092526116b391810190612189565b60015b6116c65750600092839250829150565b50805160209091015160019591945092509050565b6000546001600160a01b0316336001600160a01b0316146116fc5733610467565b6001600160a01b0381166117235760405163d92e233d60e01b815260040160405180910390fd5b610a6681611bc5565b60008060015461173a610708565b6117449190612374565b90506000611750611a80565b61175b5760006117e3565b6040516370a0823160e01b81523060048201527f00000000000000000000000000000000000000000000000000000000000000006001600160a01b0316906370a0823190602401602060405180830381865afa1580156117bf573d6000803e3d6000fd5b505050506040513d601f19601f820116820180604052508101906117e3919061211c565b90508082106117f257806117f4565b815b9250505090565b611803611cd7565b60027f9b779b17422d0df92223018b32b4d1fa46e071723d6817e2486d003becc55f005b55565b6000611834611a80565b61183e5750600090565b6040516370a0823160e01b81523060048201527f00000000000000000000000000000000000000000000000000000000000000006001600160a01b0316906370a0823190602401602060405180830381865afa1580156118a2573d6000803e3d6000fd5b505050506040513d601f19601f82011682018060405250810190610713919061211c565b6118d38383836001611d22565b6118fb57604051635274afe760e01b81526001600160a01b0384166004820152602401610488565b505050565b60017f9b779b17422d0df92223018b32b4d1fa46e071723d6817e2486d003becc55f00611827565b60007f000000000000000000000000000000000000000000000000000000000000000064ffffffffff168264ffffffffff16101561196857506000919050565b7f000000000000000000000000000000000000000000000000000000000000000064ffffffffff168264ffffffffff16106119c457507f0000000000000000000000000000000000000000000000000000000000000000919050565b611a0e7f00000000000000000000000000000000000000000000000000000000000000007f00000000000000000000000000000000000000000000000000000000000000006124de565b64ffffffffff16611a3f7f0000000000000000000000000000000000000000000000000000000000000000846124de565b611a709064ffffffffff167f00000000000000000000000000000000000000000000000000000000000000006124fb565b611a7a9190612512565b92915050565b6000807f00000000000000000000000000000000000000000000000000000000000000006003811115611ab557611ab5611f97565b1480610713575060037f00000000000000000000000000000000000000000000000000000000000000006003811115611af057611af0611f97565b14905090565b60006001600160a01b03831615611b76576040516370a0823160e01b81526001600160a01b0383811660048301528416906370a0823190602401602060405180830381865afa158015611b4d573d6000803e3d6000fd5b505050506040513d601f19601f82011682018060405250810190611b71919061211c565b611b82565b816001600160a01b0316315b9392505050565b611b97848484846001611d88565b611bbf57604051635274afe760e01b81526001600160a01b0385166004820152602401610488565b50505050565b6000546001600160a01b0316336001600160a01b031614611be65733610467565b6000546001600160a01b0316611bfb82611dfa565b604051634c7ababd60e01b815264ffffffffff7f00000000000000000000000000000000000000000000000000000000000000001660048201526001600160a01b03838116602483015282811660448301527f0000000000000000000000000000000000000000000000000000000000000000811660648301527f00000000000000000000000000000000000000000000000000000000000000001690634c7ababd90608401600060405180830381600087803b158015611cbb57600080fd5b505af1158015611ccf573d6000803e3d6000fd5b505050505050565b611d04600060027f9b779b17422d0df92223018b32b4d1fa46e071723d6817e2486d003becc55f00611e6b565b1561070657604051633ee5aeb560e01b815260040160405180910390fd5b60405163a9059cbb60e01b60008181526001600160a01b038616600452602485905291602083604481808b5af192506001600051148316611d7c578383151615611d6f573d6000823e3d81fd5b6000873b113d1516831692505b60405250949350505050565b6040516323b872dd60e01b60008181526001600160a01b038781166004528616602452604485905291602083606481808c5af192506001600051148316611de8578383151615611ddb573d6000823e3d81fd5b6000883b113d1516831692505b60405250600060605295945050505050565b6000546001600160a01b0316336001600160a01b031614611e1b5733610467565b600080546001600160a01b038381166001600160a01b0319831681178455604051919092169283917f8be0079c531659141344cd1fd0a4f28419497f9722a3daafe3b4186f6b6457e09190a35050565b5414919050565b6001600160a01b0381168114610a6657600080fd5b634e487b7160e01b600052604160045260246000fd5b604051601f8201601f1916810167ffffffffffffffff81118282101715611ec657611ec6611e87565b604052919050565b60008060008060808587031215611ee457600080fd5b8435611eef81611e72565b93506020850135611eff81611e72565b925060408501359150606085013567ffffffffffffffff811115611f2257600080fd5b8501601f81018713611f3357600080fd5b803567ffffffffffffffff811115611f4d57611f4d611e87565b611f60601f8201601f1916602001611e9d565b818152886020838501011115611f7557600080fd5b8160208401602083013760006020838301015280935050505092959194509250565b634e487b7160e01b600052602160045260246000fd5b60048110611fcb57634e487b7160e01b600052602160045260246000fd5b9052565b6101408101611fde828d611fad565b64ffffffffff9a8b1660208301526001600160a01b03998a1660408301529789166060820152958816608087015260a08601949094529190951660c084015293851660e08301529290931661010084015261012090920152919050565b60006020828403121561204d57600080fd5b8135611b8281611e72565b803564ffffffffff8116811461206d57600080fd5b919050565b60006020828403121561208457600080fd5b611b8282612058565b60208101611a7a8284611fad565b600080604083850312156120ae57600080fd5b823591506120be60208401612058565b90509250929050565b600080604083850312156120da57600080fd5b82356120e581611e72565b946020939093013593505050565b634e487b7160e01b600052601160045260246000fd5b80820180821115611a7a57611a7a6120f3565b60006020828403121561212e57600080fd5b5051919050565b6000806040838503121561214857600080fd5b505080516020909101519092909150565b805161206d81611e72565b805162ffffff8116811461206d57600080fd5b8051600281900b811461206d57600080fd5b60008082840360c081121561219d57600080fd5b60a08112156121ab57600080fd5b5060405160a0810167ffffffffffffffff811182821017156121cf576121cf611e87565b60405283516121dd81611e72565b815260208401516121ed81611e72565b60208201526121fe60408501612164565b604082015261220f60608501612177565b6060820152608084015161222281611e72565b608082015260a0939093015192949293505050565b6000815180845260005b8181101561225d57602081850181015186830182015201612241565b506000602082860101526020601f19601f83011685010191505092915050565b8581528460208201526001600160801b03841660408201526001600160801b038316606082015260a0608082015260006122ba60a0830184612237565b979650505050505050565b634e487b7160e01b600052603260045260246000fd5b6040815260006122ee6040830185612237565b828103602084015280845180835260208301915060208160051b8401016020870160005b8381101561234457601f1986840301855261232e838351612237565b6020958601959093509190910190600101612312565b509098975050505050505050565b6040815260006123656040830185612237565b90508260208301529392505050565b81810381811115611a7a57611a7a6120f3565b60008060008060008060c087890312156123a057600080fd5b86516123ab81611e72565b60208801519096506123bc81611e72565b6040880151606089015160808a015160a0909a0151989b929a5090989097909650945092505050565b80516001600160801b038116811461206d57600080fd5b6000806000806000806000806000806000806101808d8f03121561241f57600080fd5b8c516bffffffffffffffffffffffff8116811461243b57600080fd5b9b5061244960208e01612159565b9a5061245760408e01612159565b995061246560608e01612159565b985061247360808e01612164565b975061248160a08e01612177565b965061248f60c08e01612177565b955061249d60e08e016123e5565b6101008e01516101208f0151919650945092506124bd6101408e016123e5565b91506124cc6101608e016123e5565b90509295989b509295989b509295989b565b64ffffffffff8281168282160390811115611a7a57611a7a6120f3565b8082028115828204841417611a7a57611a7a6120f3565b60008261252f57634e487b7160e01b600052601260045260246000fd5b50049056fea264697066735822122085e0ddf975b0daab9519033e7bf8501353d1485be0ffa707c7e2bb48baa4285564736f6c634300081e00339b779b17422d0df92223018b32b4d1fa46e071723d6817e2486d003becc55f00a26469706673582212207df0597906a028d5eb67d392523e2c2369ad7c378130dbff305c8858f2cce89064736f6c634300081e0033",
  "libraries": {
    "Util": "0xFBfa1ce526f98deC2251D44d1DaF7c599223aFe6"
  },
  "devdoc": {
    "errors": {
      "ReentrancyGuardReentrantCall()": [
        {
          "details": "Unauthorized reentrant call."
        }
      ],
      "SafeERC20FailedOperation(address)": [
        {
          "details": "An operation with an ERC-20 token failed."
        }
      ]
    },
    "kind": "dev",
    "methods": {
      "createPositionLock(address,uint256,uint40)": {
        "details": "Uniswap V3/V4 path. `positionManager_` must be allowlisted; its registered kind decides how fees are later collected. Only the flat `ethFee()` applies (a percentage of an NFT is not possible). The caller must have approved this manager as an operator for the position NFT."
      },
      "createTokenLock(address,uint256,uint40,uint16)": {
        "details": "ERC20 (and V2-LP) path. Two ways to pay the creation fee: send `ethFee()` wei to lock 100% of `amount_`, or send 0 wei and have `tokenFeeBps()` deducted from `amount_` in the locked token itself - in which case the call reverts if the live `tokenFeeBps()` exceeds `maxTokenFeeBps_` (ignored on the ETH-fee path), protecting the caller against a fee change landing between submission and mining. Pass `type(uint16).max` to accept whatever the live rate is."
      },
      "createVestingLock(address,uint256,uint40,uint40,uint40,uint16)": {
        "details": "Locks a fungible token and releases it linearly (with an optional cliff) to the lock owner between `start_` and `end_`. Same creation-fee options as `createTokenLock`; the vesting grant is the post-fee amount and is irrevocable."
      },
      "notifyLockerOwnerChange(uint40,address,address,address)": {
        "details": "Called by a `TitanLockerV2` whenever its ownership changes, so the search index above stays accurate."
      },
      "setCreationEnabled(bool)": {
        "details": "Turns off new locks so users can be migrated to a future version. Existing locks keep working (extend/deposit/withdraw/collect) as normal."
      },
      "setPositionManager(address,uint8,bool)": {
        "details": "Allowlist (or update/remove) a position manager. `kind_` must be UNIV3 or UNIV4. Set `allowed_` false to disable it for new locks."
      },
      "transferOwnership(address)": {
        "details": "Reverts on a zero-address target so ownership can never be bricked by accident; there is deliberately no \"renounce ownership\" escape hatch."
      }
    },
    "stateVariables": {
      "MAX_TOKEN_FEE_BPS": {
        "details": "Hard ceiling on the owner-settable token fee, independent of any caller-side slippage protection. Bounds the worst case of a fee change landing between a user's createTokenLock/createVestingLock submission and its mining: at most 5% of the deposit, never up to 100%."
      },
      "_pmKind": {
        "details": "Allowlist of Uniswap position managers. `_pmKind` records whether a manager is V3- or V4-style; `_pmAllowed` gates whether new locks may use it. A manager with `_pmAllowed == false` is rejected regardless of kind."
      },
      "_tokenLockersForAddress": {
        "details": "Lets the frontend search lockers by creator, locked token/position manager, locker address, or either underlying paired token."
      }
    },
    "version": 1
  },
  "userdoc": {
    "kind": "user",
    "methods": {
      "positionManagerKind(address)": {
        "notice": "Kind registered for a position manager and whether it is allowed. `allowed_ == false` means positions cannot be locked against it."
      }
    },
    "notice": "Deploys and indexes `TitanLockerV2` instances for three lock kinds - plain/LP ERC20 tokens, Uniswap V3 positions, and Uniswap V4 positions - all through one manager. Each lock is its own child contract, so custody is isolated per lock. V3/V4 positions can only be locked against a position manager the owner has allowlisted, which is both the multichain mechanism and the kill-switch for un-validated integrations.",
    "version": 1
  },
  "storageLayout": {
    "storage": [
      {
        "astId": 2198,
        "contract": "contracts/TitanLockerManagerV2.sol:TitanLockerManagerV2",
        "label": "_currentOwner",
        "offset": 0,
        "slot": "0",
        "type": "t_address"
      },
      {
        "astId": 3117,
        "contract": "contracts/TitanLockerManagerV2.sol:TitanLockerManagerV2",
        "label": "_creationEnabled",
        "offset": 20,
        "slot": "0",
        "type": "t_bool"
      },
      {
        "astId": 3119,
        "contract": "contracts/TitanLockerManagerV2.sol:TitanLockerManagerV2",
        "label": "_tokenLockerCount",
        "offset": 21,
        "slot": "0",
        "type": "t_uint40"
      },
      {
        "astId": 3124,
        "contract": "contracts/TitanLockerManagerV2.sol:TitanLockerManagerV2",
        "label": "_tokenLockers",
        "offset": 0,
        "slot": "1",
        "type": "t_mapping(t_uint40,t_contract(TitanLockerV2)6061)"
      },
      {
        "astId": 3130,
        "contract": "contracts/TitanLockerManagerV2.sol:TitanLockerManagerV2",
        "label": "_tokenLockersForAddress",
        "offset": 0,
        "slot": "2",
        "type": "t_mapping(t_address,t_array(t_uint40)dyn_storage)"
      },
      {
        "astId": 3136,
        "contract": "contracts/TitanLockerManagerV2.sol:TitanLockerManagerV2",
        "label": "_pmKind",
        "offset": 0,
        "slot": "3",
        "type": "t_mapping(t_address,t_enum(LockKind)1925)"
      },
      {
        "astId": 3140,
        "contract": "contracts/TitanLockerManagerV2.sol:TitanLockerManagerV2",
        "label": "_pmAllowed",
        "offset": 0,
        "slot": "4",
        "type": "t_mapping(t_address,t_bool)"
      },
      {
        "astId": 3142,
        "contract": "contracts/TitanLockerManagerV2.sol:TitanLockerManagerV2",
        "label": "_ethFee",
        "offset": 0,
        "slot": "5",
        "type": "t_uint256"
      },
      {
        "astId": 3144,
        "contract": "contracts/TitanLockerManagerV2.sol:TitanLockerManagerV2",
        "label": "_tokenFeeBps",
        "offset": 0,
        "slot": "6",
        "type": "t_uint16"
      },
      {
        "astId": 3146,
        "contract": "contracts/TitanLockerManagerV2.sol:TitanLockerManagerV2",
        "label": "_feeReceiver",
        "offset": 2,
        "slot": "6",
        "type": "t_address_payable"
      },
      {
        "astId": 3150,
        "contract": "contracts/TitanLockerManagerV2.sol:TitanLockerManagerV2",
        "label": "_feeExempt",
        "offset": 0,
        "slot": "7",
        "type": "t_mapping(t_address,t_bool)"
      }
    ],
    "types": {
      "t_address": {
        "encoding": "inplace",
        "label": "address",
        "numberOfBytes": "20"
      },
      "t_address_payable": {
        "encoding": "inplace",
        "label": "address payable",
        "numberOfBytes": "20"
      },
      "t_array(t_uint40)dyn_storage": {
        "base": "t_uint40",
        "encoding": "dynamic_array",
        "label": "uint40[]",
        "numberOfBytes": "32"
      },
      "t_bool": {
        "encoding": "inplace",
        "label": "bool",
        "numberOfBytes": "1"
      },
      "t_contract(TitanLockerV2)6061": {
        "encoding": "inplace",
        "label": "contract TitanLockerV2",
        "numberOfBytes": "20"
      },
      "t_enum(LockKind)1925": {
        "encoding": "inplace",
        "label": "enum ITitanLockerManagerV2.LockKind",
        "numberOfBytes": "1"
      },
      "t_mapping(t_address,t_array(t_uint40)dyn_storage)": {
        "encoding": "mapping",
        "key": "t_address",
        "label": "mapping(address => uint40[])",
        "numberOfBytes": "32",
        "value": "t_array(t_uint40)dyn_storage"
      },
      "t_mapping(t_address,t_bool)": {
        "encoding": "mapping",
        "key": "t_address",
        "label": "mapping(address => bool)",
        "numberOfBytes": "32",
        "value": "t_bool"
      },
      "t_mapping(t_address,t_enum(LockKind)1925)": {
        "encoding": "mapping",
        "key": "t_address",
        "label": "mapping(address => enum ITitanLockerManagerV2.LockKind)",
        "numberOfBytes": "32",
        "value": "t_enum(LockKind)1925"
      },
      "t_mapping(t_uint40,t_contract(TitanLockerV2)6061)": {
        "encoding": "mapping",
        "key": "t_uint40",
        "label": "mapping(uint40 => contract TitanLockerV2)",
        "numberOfBytes": "32",
        "value": "t_contract(TitanLockerV2)6061"
      },
      "t_uint16": {
        "encoding": "inplace",
        "label": "uint16",
        "numberOfBytes": "2"
      },
      "t_uint256": {
        "encoding": "inplace",
        "label": "uint256",
        "numberOfBytes": "32"
      },
      "t_uint40": {
        "encoding": "inplace",
        "label": "uint40",
        "numberOfBytes": "5"
      }
    }
  }
}