{
  "address": "0x713E56CeE7060F01F710bF26Aff988264dcfb311",
  "abi": [
    {
      "inputs": [
        {
          "internalType": "address payable",
          "name": "feeReceiver_",
          "type": "address"
        }
      ],
      "stateMutability": "nonpayable",
      "type": "constructor"
    },
    {
      "inputs": [
        {
          "internalType": "uint40",
          "name": "id",
          "type": "uint40"
        },
        {
          "internalType": "address",
          "name": "caller",
          "type": "address"
        }
      ],
      "name": "CallerIsNotLocker",
      "type": "error"
    },
    {
      "inputs": [
        {
          "internalType": "address",
          "name": "caller",
          "type": "address"
        }
      ],
      "name": "CallerNotOwner",
      "type": "error"
    },
    {
      "inputs": [],
      "name": "CreationDisabled",
      "type": "error"
    },
    {
      "inputs": [],
      "name": "EthTransferFailed",
      "type": "error"
    },
    {
      "inputs": [],
      "name": "ExemptAccountsPayNoEth",
      "type": "error"
    },
    {
      "inputs": [
        {
          "internalType": "uint256",
          "name": "expected",
          "type": "uint256"
        },
        {
          "internalType": "uint256",
          "name": "received",
          "type": "uint256"
        }
      ],
      "name": "IncorrectEthFee",
      "type": "error"
    },
    {
      "inputs": [],
      "name": "ReentrancyGuardReentrantCall",
      "type": "error"
    },
    {
      "inputs": [
        {
          "internalType": "address",
          "name": "token",
          "type": "address"
        }
      ],
      "name": "SafeERC20FailedOperation",
      "type": "error"
    },
    {
      "inputs": [],
      "name": "TokenFeeTooHigh",
      "type": "error"
    },
    {
      "inputs": [],
      "name": "ZeroAddress",
      "type": "error"
    },
    {
      "anonymous": false,
      "inputs": [
        {
          "indexed": true,
          "internalType": "uint40",
          "name": "id",
          "type": "uint40"
        },
        {
          "indexed": false,
          "internalType": "bool",
          "name": "paidInEth",
          "type": "bool"
        },
        {
          "indexed": false,
          "internalType": "uint256",
          "name": "amount",
          "type": "uint256"
        }
      ],
      "name": "FeeCollected",
      "type": "event"
    },
    {
      "anonymous": false,
      "inputs": [
        {
          "indexed": false,
          "internalType": "uint256",
          "name": "ethFee",
          "type": "uint256"
        },
        {
          "indexed": false,
          "internalType": "uint16",
          "name": "tokenFeeBps",
          "type": "uint16"
        },
        {
          "indexed": true,
          "internalType": "address",
          "name": "feeReceiver",
          "type": "address"
        }
      ],
      "name": "FeeConfigUpdated",
      "type": "event"
    },
    {
      "anonymous": false,
      "inputs": [
        {
          "indexed": true,
          "internalType": "address",
          "name": "previousOwner",
          "type": "address"
        },
        {
          "indexed": true,
          "internalType": "address",
          "name": "newOwner",
          "type": "address"
        }
      ],
      "name": "OwnershipTransferred",
      "type": "event"
    },
    {
      "anonymous": false,
      "inputs": [
        {
          "indexed": false,
          "internalType": "uint40",
          "name": "id",
          "type": "uint40"
        },
        {
          "indexed": true,
          "internalType": "address",
          "name": "token",
          "type": "address"
        },
        {
          "indexed": true,
          "internalType": "address",
          "name": "token0",
          "type": "address"
        },
        {
          "indexed": true,
          "internalType": "address",
          "name": "token1",
          "type": "address"
        },
        {
          "indexed": false,
          "internalType": "address",
          "name": "createdBy",
          "type": "address"
        },
        {
          "indexed": false,
          "internalType": "uint256",
          "name": "balance",
          "type": "uint256"
        },
        {
          "indexed": false,
          "internalType": "uint40",
          "name": "unlockTime",
          "type": "uint40"
        }
      ],
      "name": "TokenLockerCreated",
      "type": "event"
    },
    {
      "inputs": [
        {
          "internalType": "address",
          "name": "tokenAddress_",
          "type": "address"
        },
        {
          "internalType": "uint256",
          "name": "amount_",
          "type": "uint256"
        },
        {
          "internalType": "uint40",
          "name": "unlockTime_",
          "type": "uint40"
        }
      ],
      "name": "createTokenLocker",
      "outputs": [],
      "stateMutability": "payable",
      "type": "function"
    },
    {
      "inputs": [],
      "name": "creationEnabled",
      "outputs": [
        {
          "internalType": "bool",
          "name": "",
          "type": "bool"
        }
      ],
      "stateMutability": "view",
      "type": "function"
    },
    {
      "inputs": [],
      "name": "ethFee",
      "outputs": [
        {
          "internalType": "uint256",
          "name": "",
          "type": "uint256"
        }
      ],
      "stateMutability": "view",
      "type": "function"
    },
    {
      "inputs": [],
      "name": "feeReceiver",
      "outputs": [
        {
          "internalType": "address",
          "name": "",
          "type": "address"
        }
      ],
      "stateMutability": "view",
      "type": "function"
    },
    {
      "inputs": [
        {
          "internalType": "uint40",
          "name": "id_",
          "type": "uint40"
        }
      ],
      "name": "getLpData",
      "outputs": [
        {
          "internalType": "bool",
          "name": "hasLpData",
          "type": "bool"
        },
        {
          "internalType": "uint40",
          "name": "id",
          "type": "uint40"
        },
        {
          "internalType": "address",
          "name": "token0",
          "type": "address"
        },
        {
          "internalType": "address",
          "name": "token1",
          "type": "address"
        },
        {
          "internalType": "uint256",
          "name": "balance0",
          "type": "uint256"
        },
        {
          "internalType": "uint256",
          "name": "balance1",
          "type": "uint256"
        },
        {
          "internalType": "uint256",
          "name": "price0",
          "type": "uint256"
        },
        {
          "internalType": "uint256",
          "name": "price1",
          "type": "uint256"
        }
      ],
      "stateMutability": "view",
      "type": "function"
    },
    {
      "inputs": [
        {
          "internalType": "uint40",
          "name": "id_",
          "type": "uint40"
        }
      ],
      "name": "getTokenLockAddress",
      "outputs": [
        {
          "internalType": "address",
          "name": "",
          "type": "address"
        }
      ],
      "stateMutability": "view",
      "type": "function"
    },
    {
      "inputs": [
        {
          "internalType": "uint40",
          "name": "id_",
          "type": "uint40"
        }
      ],
      "name": "getTokenLockData",
      "outputs": [
        {
          "internalType": "bool",
          "name": "isLpToken",
          "type": "bool"
        },
        {
          "internalType": "uint40",
          "name": "id",
          "type": "uint40"
        },
        {
          "internalType": "address",
          "name": "contractAddress",
          "type": "address"
        },
        {
          "internalType": "address",
          "name": "lockOwner",
          "type": "address"
        },
        {
          "internalType": "address",
          "name": "token",
          "type": "address"
        },
        {
          "internalType": "address",
          "name": "createdBy",
          "type": "address"
        },
        {
          "internalType": "uint40",
          "name": "createdAt",
          "type": "uint40"
        },
        {
          "internalType": "uint40",
          "name": "unlockTime",
          "type": "uint40"
        },
        {
          "internalType": "uint256",
          "name": "balance",
          "type": "uint256"
        },
        {
          "internalType": "uint256",
          "name": "totalSupply",
          "type": "uint256"
        }
      ],
      "stateMutability": "view",
      "type": "function"
    },
    {
      "inputs": [
        {
          "internalType": "address",
          "name": "address_",
          "type": "address"
        }
      ],
      "name": "getTokenLockersForAddress",
      "outputs": [
        {
          "internalType": "uint40[]",
          "name": "",
          "type": "uint40[]"
        }
      ],
      "stateMutability": "view",
      "type": "function"
    },
    {
      "inputs": [
        {
          "internalType": "address",
          "name": "account_",
          "type": "address"
        }
      ],
      "name": "isExemptFromFees",
      "outputs": [
        {
          "internalType": "bool",
          "name": "",
          "type": "bool"
        }
      ],
      "stateMutability": "view",
      "type": "function"
    },
    {
      "inputs": [
        {
          "internalType": "uint40",
          "name": "id_",
          "type": "uint40"
        },
        {
          "internalType": "address",
          "name": "newOwner_",
          "type": "address"
        },
        {
          "internalType": "address",
          "name": "previousOwner_",
          "type": "address"
        },
        {
          "internalType": "address",
          "name": "createdBy_",
          "type": "address"
        }
      ],
      "name": "notifyLockerOwnerChange",
      "outputs": [],
      "stateMutability": "nonpayable",
      "type": "function"
    },
    {
      "inputs": [],
      "name": "owner",
      "outputs": [
        {
          "internalType": "address",
          "name": "",
          "type": "address"
        }
      ],
      "stateMutability": "view",
      "type": "function"
    },
    {
      "inputs": [
        {
          "internalType": "bool",
          "name": "value_",
          "type": "bool"
        }
      ],
      "name": "setCreationEnabled",
      "outputs": [],
      "stateMutability": "nonpayable",
      "type": "function"
    },
    {
      "inputs": [
        {
          "internalType": "uint256",
          "name": "value_",
          "type": "uint256"
        }
      ],
      "name": "setEthFee",
      "outputs": [],
      "stateMutability": "nonpayable",
      "type": "function"
    },
    {
      "inputs": [
        {
          "internalType": "address",
          "name": "account_",
          "type": "address"
        },
        {
          "internalType": "bool",
          "name": "exempt_",
          "type": "bool"
        }
      ],
      "name": "setFeeExempt",
      "outputs": [],
      "stateMutability": "nonpayable",
      "type": "function"
    },
    {
      "inputs": [
        {
          "internalType": "address payable",
          "name": "value_",
          "type": "address"
        }
      ],
      "name": "setFeeReceiver",
      "outputs": [],
      "stateMutability": "nonpayable",
      "type": "function"
    },
    {
      "inputs": [
        {
          "internalType": "uint16",
          "name": "value_",
          "type": "uint16"
        }
      ],
      "name": "setTokenFeeBps",
      "outputs": [],
      "stateMutability": "nonpayable",
      "type": "function"
    },
    {
      "inputs": [],
      "name": "tokenFeeBps",
      "outputs": [
        {
          "internalType": "uint16",
          "name": "",
          "type": "uint16"
        }
      ],
      "stateMutability": "view",
      "type": "function"
    },
    {
      "inputs": [],
      "name": "tokenLockerCount",
      "outputs": [
        {
          "internalType": "uint40",
          "name": "",
          "type": "uint40"
        }
      ],
      "stateMutability": "view",
      "type": "function"
    },
    {
      "inputs": [
        {
          "internalType": "address",
          "name": "newOwner_",
          "type": "address"
        }
      ],
      "name": "transferOwnership",
      "outputs": [],
      "stateMutability": "nonpayable",
      "type": "function"
    }
  ],
  "transactionHash": "0xf9c22800bf72416688cd25611c71d861adcc7ee8278d3e133bc7af690f47ada8",
  "args": [
    "0x5C773302FBEED11fA59a6939f0354678738B02DB"
  ],
  "numDeployments": 1,
  "solcInputHash": "77650ee3773036087821ee5ca24efe47",
  "bytecode": "0x60806040526000805460ff60a01b1916600160a01b17905534801561002357600080fd5b50604051612bab380380612bab83398101604081905261004291610111565b600080546001600160a01b031916339081178255604051909182917f8be0079c531659141344cd1fd0a4f28419497f9722a3daafe3b4186f6b6457e0908290a35060017f9b779b17422d0df92223018b32b4d1fa46e071723d6817e2486d003becc55f00556001600160a01b0381166100ce5760405163d92e233d60e01b815260040160405180910390fd5b600480546702c68af0bb14000060035561ffff196001600160a01b039093166201000002929092166001600160b01b0319909216919091176101f4179055610141565b60006020828403121561012357600080fd5b81516001600160a01b038116811461013a57600080fd5b9392505050565b612a5b806101506000396000f3fe6080604052600436106101145760003560e01c806383a1364a116100a0578063a681711711610064578063a6817117146103a4578063b3f0067414610429578063cde7cced1461044d578063efdcd97414610460578063f2fde38b1461048057600080fd5b806383a1364a146102c55780638da5cb5b146102f25780638ebfc796146103245780639d35187714610344578063a28a1f711461036757600080fd5b80633f6738a9116100e75780633f6738a91461020e5780634c7ababd1461022e5780634cf1115d1461024e57806360fd09891461026c5780636a5dab9f146102a557600080fd5b80630307535e1461011957806322df78d01461013b57806326f3ed2b1461016b57806336ed16e21461019f575b600080fd5b34801561012557600080fd5b50610139610134366004611410565b6104a0565b005b34801561014757600080fd5b50600054600160a01b900460ff165b60405190151581526020015b60405180910390f35b34801561017757600080fd5b50600054600160a81b900464ffffffffff1660405164ffffffffff9091168152602001610162565b3480156101ab57600080fd5b506101bf6101ba366004611447565b610575565b60408051981515895264ffffffffff90971660208901526001600160a01b0395861696880196909652939092166060860152608085015260a084015260c083015260e082015261010001610162565b34801561021a57600080fd5b50610139610229366004611464565b610633565b34801561023a57600080fd5b50610139610249366004611492565b6106a6565b34801561025a57600080fd5b50600354604051908152602001610162565b34801561027857600080fd5b506101566102873660046114ee565b6001600160a01b031660009081526005602052604090205460ff1690565b3480156102b157600080fd5b506101396102c0366004611519565b610927565b3480156102d157600080fd5b506102e56102e03660046114ee565b610966565b6040516101629190611536565b3480156102fe57600080fd5b506000546001600160a01b03165b6040516001600160a01b039091168152602001610162565b34801561033057600080fd5b5061013961033f366004611580565b610a00565b34801561035057600080fd5b5060045460405161ffff9091168152602001610162565b34801561037357600080fd5b5061030c610382366004611447565b64ffffffffff166000908152600160205260409020546001600160a01b031690565b3480156103b057600080fd5b506103c46103bf366004611447565b610a4c565b604080519a15158b5264ffffffffff998a1660208c01526001600160a01b03988916908b015295871660608a015293861660808901529190941660a087015292841660c08601529190921660e084015261010083015261012082015261014001610162565b34801561043557600080fd5b506004546201000090046001600160a01b031661030c565b61013961045b3660046115b9565b610b13565b34801561046c57600080fd5b5061013961047b3660046114ee565b610c7c565b34801561048c57600080fd5b5061013961049b3660046114ee565b610d36565b6000546001600160a01b0316336001600160a01b0316146104e757335b60405163060296c760e31b81526001600160a01b0390911660048201526024015b60405180910390fd5b61271061ffff8216111561050e57604051630b38148960e21b815260040160405180910390fd5b6004805461ffff191661ffff831690811791829055600354604080519182526020820192909252620100009092046001600160a01b0316917f63164921add8563148a9f0dba76dc04da8593cf105f95aef2a1053b57fba523e91015b60405180910390a250565b600080600080600080600080600160008a64ffffffffff1664ffffffffff16815260200190815260200160002060009054906101000a90046001600160a01b03166001600160a01b031663af74e6296040518163ffffffff1660e01b815260040161010060405180830381865afa1580156105f4573d6000803e3d6000fd5b505050506040513d601f19601f8201168201806040525081019061061891906115fb565b97509750975097509750975097509750919395975091939597565b6000546001600160a01b0316336001600160a01b03161461065457336104bd565b60038190556004546040805183815261ffff83166020820152620100009092046001600160a01b0316917f63164921add8563148a9f0dba76dc04da8593cf105f95aef2a1053b57fba523e910161056a565b64ffffffffff84166000908152600160205260409020546001600160a01b0316336001600160a01b0316146106fd57604051630db9d21960e21b815264ffffffffff851660048201523360248201526044016104de565b806001600160a01b0316826001600160a01b031614610865576001600160a01b0382166000908152600260205260408120905b8154811015610862578564ffffffffff1682828154811061075357610753611681565b90600052602060002090600691828204019190066005029054906101000a900464ffffffffff1664ffffffffff160361085a5781548290610796906001906116ad565b815481106107a6576107a6611681565b90600052602060002090600691828204019190066005029054906101000a900464ffffffffff168282815481106107df576107df611681565b90600052602060002090600691828204019190066005026101000a81548164ffffffffff021916908364ffffffffff16021790555081805480610824576108246116c6565b60019003818190600052602060002090600691828204019190066005026101000a81549064ffffffffff02191690559055610862565b600101610730565b50505b6001600160a01b0383166000908152600260205260408120905b81548110156108e4578564ffffffffff168282815481106108a2576108a2611681565b90600052602060002090600691828204019190066005029054906101000a900464ffffffffff1664ffffffffff16036108dc575050610921565b60010161087f565b5080546001810182556000918252602090912060068083049091018054919092066005026101000a64ffffffffff81810219909216918716021790555b50505050565b6000546001600160a01b0316336001600160a01b03161461094857336104bd565b60008054911515600160a01b0260ff60a01b19909216919091179055565b6001600160a01b0381166000908152600260209081526040918290208054835181840281018401909452808452606093928301828280156109f457602002820191906000526020600020906000905b82829054906101000a900464ffffffffff1664ffffffffff16815260200190600501906020826004010492830192600103820291508084116109b55790505b50505050509050919050565b6000546001600160a01b0316336001600160a01b031614610a2157336104bd565b6001600160a01b03919091166000908152600560205260409020805460ff1916911515919091179055565b600080600080600080600080600080600160008c64ffffffffff1664ffffffffff16815260200190815260200160002060009054906101000a90046001600160a01b03166001600160a01b0316634c02bf0b6040518163ffffffff1660e01b815260040161014060405180830381865afa158015610ace573d6000803e3d6000fd5b505050506040513d601f19601f82011682018060405250810190610af291906116dc565b99509950995099509950995099509950995099509193959799509193959799565b600054600160a01b900460ff16610b3d5760405163125b940760e21b815260040160405180910390fd5b610b45610d8a565b60008054600160a81b900464ffffffffff16816015610b63836117a4565b91906101000a81548164ffffffffff021916908364ffffffffff16021790555090506000610b92828686610db8565b905060003083338887604051610ba790611403565b6001600160a01b03958616815264ffffffffff94851660208201529285166040840152931660608201529116608082015260a001604051809103906000f080158015610bf7573d6000803e3d6000fd5b5064ffffffffff8416600090815260016020526040902080546001600160a01b0319166001600160a01b0383161790559050610c3f336001600160a01b038816908385610f9c565b610c4b83878684610fd2565b505050610c7760017f9b779b17422d0df92223018b32b4d1fa46e071723d6817e2486d003becc55f0055565b505050565b6000546001600160a01b0316336001600160a01b031614610c9d57336104bd565b6001600160a01b038116610cc45760405163d92e233d60e01b815260040160405180910390fd5b600480546001600160a01b038381166201000090810262010000600160b01b031984168117948590556003546040805191825261ffff92831692909516919091176020820152930416917f63164921add8563148a9f0dba76dc04da8593cf105f95aef2a1053b57fba523e910161056a565b6000546001600160a01b0316336001600160a01b031614610d5757336104bd565b6001600160a01b038116610d7e5760405163d92e233d60e01b815260040160405180910390fd5b610d87816112dc565b50565b610d9261134d565b60027f9b779b17422d0df92223018b32b4d1fa46e071723d6817e2486d003becc55f0055565b336000908152600560205260408120543415159060ff1615610dfc578015610df35760405163b000960760e01b815260040160405180910390fd5b82915050610f95565b8015610ef7576003543414610e315760035460405163082fc47b60e21b815260048101919091523460248201526044016104de565b6004546040516000916201000090046001600160a01b03169034908381818185875af1925050503d8060008114610e84576040519150601f19603f3d011682016040523d82523d6000602084013e610e89565b606091505b5050905080610eab57604051630db2c7f160e31b815260040160405180910390fd5b604080516001815234602082015264ffffffffff8816917f599e0e7458510fc6240982cbfeb3a6d640707bc3457603c774d41cbe0c96f628910160405180910390a28392505050610f95565b60045460009061271090610f0f9061ffff16866117cb565b610f1991906117e2565b9050610f2581856116ad565b92508015610f9257610f4e336004546001600160a01b0388811692916201000090041684610f9c565b60408051600081526020810183905264ffffffffff8816917f599e0e7458510fc6240982cbfeb3a6d640707bc3457603c774d41cbe0c96f628910160405180910390a25b50505b9392505050565b610faa848484846001611391565b61092157604051635274afe760e01b81526001600160a01b03851660048201526024016104de565b3360009081526002602090815260408083208054600180820183559185528385206006808304909101805492829006600590810261010090810a64ffffffffff818102199096168e8716918202179093556001600160a01b038c81168a52878a2080548089018255908b52898b20868204018054918790068502840a808902199092169186029190911790558a16808a52878a20805497880181558a5297892084870401805494909606909102810a93840219909216920291909117909155815163af74e62960e01b8152915185949384938493919263af74e629926004808401939192918290030181865afa1580156110d0573d6000803e3d6000fd5b505050506040513d601f19601f820116820180604052508101906110f491906115fb565b505050509350935050925082156111ec5760026000836001600160a01b03166001600160a01b031681526020019081526020016000208890806001815401808255809150506001900390600052602060002090600691828204019190066005029091909190916101000a81548164ffffffffff021916908364ffffffffff16021790555060026000826001600160a01b03166001600160a01b031681526020019081526020016000208890806001815401808255809150506001900390600052602060002090600691828204019190066005029091909190916101000a81548164ffffffffff021916908364ffffffffff1602179055505b806001600160a01b0316826001600160a01b0316886001600160a01b03167f531cba00a411ade37b4ca8175d92c94149f19536bd8e5a83d581aa7f040d192e8b6112333390565b6040516370a0823160e01b81526001600160a01b038b811660048301528e16906370a0823190602401602060405180830381865afa158015611279573d6000803e3d6000fd5b505050506040513d601f19601f8201168201806040525081019061129d9190611804565b6040805164ffffffffff94851681526001600160a01b039093166020840152820152908b16606082015260800160405180910390a45050505050505050565b6000546001600160a01b0316336001600160a01b0316146112fd57336104bd565b600080546001600160a01b038381166001600160a01b0319831681178455604051919092169283917f8be0079c531659141344cd1fd0a4f28419497f9722a3daafe3b4186f6b6457e09190a35050565b7f9b779b17422d0df92223018b32b4d1fa46e071723d6817e2486d003becc55f005460020361138f57604051633ee5aeb560e01b815260040160405180910390fd5b565b6040516323b872dd60e01b60008181526001600160a01b038781166004528616602452604485905291602083606481808c5af1925060016000511483166113f15783831516156113e4573d6000823e3d81fd5b6000883b113d1516831692505b60405250600060605295945050505050565b6112088061181e83390190565b60006020828403121561142257600080fd5b813561ffff81168114610f9557600080fd5b64ffffffffff81168114610d8757600080fd5b60006020828403121561145957600080fd5b8135610f9581611434565b60006020828403121561147657600080fd5b5035919050565b6001600160a01b0381168114610d8757600080fd5b600080600080608085870312156114a857600080fd5b84356114b381611434565b935060208501356114c38161147d565b925060408501356114d38161147d565b915060608501356114e38161147d565b939692955090935050565b60006020828403121561150057600080fd5b8135610f958161147d565b8015158114610d8757600080fd5b60006020828403121561152b57600080fd5b8135610f958161150b565b602080825282518282018190526000918401906040840190835b8181101561157557835164ffffffffff16835260209384019390920191600101611550565b509095945050505050565b6000806040838503121561159357600080fd5b823561159e8161147d565b915060208301356115ae8161150b565b809150509250929050565b6000806000606084860312156115ce57600080fd5b83356115d98161147d565b92506020840135915060408401356115f081611434565b809150509250925092565b600080600080600080600080610100898b03121561161857600080fd5b88516116238161150b565b60208a015190985061163481611434565b60408a01519097506116458161147d565b60608a01519096506116568161147d565b60808a015160a08b015160c08c015160e0909c01519a9d999c50979a91999098919650945092505050565b634e487b7160e01b600052603260045260246000fd5b634e487b7160e01b600052601160045260246000fd5b818103818111156116c0576116c0611697565b92915050565b634e487b7160e01b600052603160045260246000fd5b6000806000806000806000806000806101408b8d0312156116fc57600080fd5b8a516117078161150b565b60208c0151909a5061171881611434565b60408c01519099506117298161147d565b60608c015190985061173a8161147d565b60808c015190975061174b8161147d565b60a08c015190965061175c8161147d565b60c08c015190955061176d81611434565b60e08c015190945061177e81611434565b6101008c0151610120909c01519a9d999c50979a96999598949793969395939492505050565b600064ffffffffff821664ffffffffff81036117c2576117c2611697565b60010192915050565b80820281158282048414176116c0576116c0611697565b6000826117ff57634e487b7160e01b600052601260045260246000fd5b500490565b60006020828403121561181657600080fd5b505191905056fe61014060405234801561001157600080fd5b50604051611208380380611208833981016040819052610030916101f8565b600080546001600160a01b0319166001600160a01b03851690811782556040518592907f8be0079c531659141344cd1fd0a4f28419497f9722a3daafe3b4186f6b6457e0908290a35060017f9b779b17422d0df92223018b32b4d1fa46e071723d6817e2486d003becc55f00556001600160a01b0383166100c45760405163d92e233d60e01b815260040160405180910390fd5b4264ffffffffff168164ffffffffff16116100f25760405163e0aa70c960e01b815260040160405180910390fd5b6001600160a01b0385811660805264ffffffffff85811660e05283821660a081905291851660c0524281166101005260008054918416600160a01b0264ffffffffff60a01b19909216919091179055604051630f24ca7d60e01b8152600481019190915273772279251b563028a32cD1505e3F2f8485C746D990630f24ca7d90602401602060405180830381865af4158015610192573d6000803e3d6000fd5b505050506040513d601f19601f820116820180604052508101906101b6919061025d565b151561012052506102869350505050565b80516001600160a01b03811681146101de57600080fd5b919050565b805164ffffffffff811681146101de57600080fd5b600080600080600060a0868803121561021057600080fd5b610219866101c7565b9450610227602087016101e3565b9350610235604087016101c7565b9250610243606087016101c7565b9150610251608087016101e3565b90509295509295909350565b60006020828403121561026f57600080fd5b8151801515811461027f57600080fd5b9392505050565b60805160a05160c05160e0516101005161012051610ee6610322600039600081816101ff01528181610394015261070d0152600061043d0152600081816103b5015281816106e60152610b3f01526000818161041a0152610b7e015260008181610329015281816103f70152818161047a0152818161053301528181610750015281816108ef0152610a0601526000610ba60152610ee66000f3fe60806040526004361061008a5760003560e01c8063a0ef91df11610059578063a0ef91df14610174578063af74e62914610189578063b05fb26f146101ed578063d88e7f4e1461022a578063f2fde38b1461024a57600080fd5b80633ccfd60b146100965780634c02bf0b146100ad578063894760691461012c5780638da5cb5b1461014c57600080fd5b3661009157005b600080fd5b3480156100a257600080fd5b506100ab61026a565b005b3480156100b957600080fd5b506100c2610392565b604080519a15158b5264ffffffffff998a1660208c01526001600160a01b03988916908b015295871660608a015293861660808901529190941660a087015292841660c08601529190921660e0840152610100830152610120820152610140015b60405180910390f35b34801561013857600080fd5b506100ab610147366004610d94565b610508565b34801561015857600080fd5b506000546040516001600160a01b039091168152602001610123565b34801561018057600080fd5b506100ab61062d565b34801561019557600080fd5b5061019e6106e2565b60408051981515895264ffffffffff90971660208901526001600160a01b0395861696880196909652939092166060860152608085015260a084015260c083015260e082015261010001610123565b3480156101f957600080fd5b506040517f000000000000000000000000000000000000000000000000000000000000000015158152602001610123565b34801561023657600080fd5b506100ab610245366004610db8565b6107f8565b34801561025657600080fd5b506100ab610265366004610d94565b610981565b6000546001600160a01b0316336001600160a01b0316146102b157335b60405163060296c760e31b81526001600160a01b0390911660048201526024015b60405180910390fd5b6102b96109d2565b60005464ffffffffff600160a01b909104811642909116101561030257600054604051632869611760e11b8152600160a01b90910464ffffffffff1660048201526024016102a8565b6103506103176000546001600160a01b031690565b61031f6109ee565b6001600160a01b037f0000000000000000000000000000000000000000000000000000000000000000169190610a7e565b6040517f75c111ce67858e12d7a8820645ab89a73cdac9c8247242a82a3ec701a230ce9b90600090a16103906001600080516020610e9183398151915255565b565b7f00000000000000000000000000000000000000000000000000000000000000007f00000000000000000000000000000000000000000000000000000000000000003060008080808080806103ef6000546001600160a01b031690565b6000549097507f000000000000000000000000000000000000000000000000000000000000000096507f000000000000000000000000000000000000000000000000000000000000000095507f00000000000000000000000000000000000000000000000000000000000000009450600160a01b900464ffffffffff1692506104766109ee565b91507f00000000000000000000000000000000000000000000000000000000000000006001600160a01b03166318160ddd6040518163ffffffff1660e01b8152600401602060405180830381865afa1580156104d6573d6000803e3d6000fd5b505050506040513d601f19601f820116820180604052508101906104fa9190610df2565b905090919293949596979899565b6000546001600160a01b0316336001600160a01b0316146105295733610287565b6105316109d2565b7f00000000000000000000000000000000000000000000000000000000000000006001600160a01b0316816001600160a01b03160361058357604051637511124760e01b815260040160405180910390fd5b806106126105996000546001600160a01b031690565b6040516370a0823160e01b81523060048201526001600160a01b038416906370a0823190602401602060405180830381865afa1580156105dd573d6000803e3d6000fd5b505050506040513d601f19601f820116820180604052508101906106019190610df2565b6001600160a01b0384169190610a7e565b5061062a6001600080516020610e9183398151915255565b50565b6000546001600160a01b0316336001600160a01b03161461064e5733610287565b6106566109d2565b600080546040516001600160a01b039091169047908381818185875af1925050503d80600081146106a3576040519150601f19603f3d011682016040523d82523d6000602084013e6106a8565b606091505b50509050806106ca57604051630db2c7f160e31b815260040160405180910390fd5b506103906001600080516020610e9183398151915255565b60007f00000000000000000000000000000000000000000000000000000000000000008180808080807f000000000000000000000000000000000000000000000000000000000000000061073957600097506107ee565b604051632590dc9d60e01b81526001600160a01b037f000000000000000000000000000000000000000000000000000000000000000016600482015273772279251b563028a32cD1505e3F2f8485C746D990632590dc9d9060240160c060405180830381865af49250505080156107cd575060408051601f3d908101601f191682019092526107ca91810190610e0b565b60015b6107da57600097506107ee565b60019d50949a509298509096509450925090505b9091929394959697565b6000546001600160a01b0316336001600160a01b0316146108195733610287565b6108216109d2565b64ffffffffff8116156108d85760005464ffffffffff600160a01b9091048116908216108061085d57504264ffffffffff168164ffffffffff16105b1561087b57604051631f63445360e21b815260040160405180910390fd5b6000805464ffffffffff60a01b1916600160a01b64ffffffffff8481168202929092179283905560405192041681527f1cec69e52d87e8682b625bef9852ff9165537aac445d87a70aae8e6d506b4ca69060200160405180910390a15b81156109665760006108e86109ee565b905061091f7f00000000000000000000000000000000000000000000000000000000000000006001600160a01b0316333086610ab8565b7f77acf75e237f9aae98f997395832d522bdb695e4a9bd07704936aa889a3667d1816109496109ee565b6109539190610e69565b60405190815260200160405180910390a1505b61097d6001600080516020610e9183398151915255565b5050565b6000546001600160a01b0316336001600160a01b0316146109a25733610287565b6001600160a01b0381166109c95760405163d92e233d60e01b815260040160405180910390fd5b61062a81610af4565b6109da610c06565b6002600080516020610e9183398151915255565b6040516370a0823160e01b81523060048201526000907f00000000000000000000000000000000000000000000000000000000000000006001600160a01b0316906370a0823190602401602060405180830381865afa158015610a55573d6000803e3d6000fd5b505050506040513d601f19601f82011682018060405250810190610a799190610df2565b905090565b610a8b8383836001610c36565b610ab357604051635274afe760e01b81526001600160a01b03841660048201526024016102a8565b505050565b610ac6848484846001610c9c565b610aee57604051635274afe760e01b81526001600160a01b03851660048201526024016102a8565b50505050565b6000546001600160a01b0316336001600160a01b031614610b155733610287565b6000546001600160a01b0316610b2a82610d0e565b604051634c7ababd60e01b815264ffffffffff7f00000000000000000000000000000000000000000000000000000000000000001660048201526001600160a01b03838116602483015282811660448301527f0000000000000000000000000000000000000000000000000000000000000000811660648301527f00000000000000000000000000000000000000000000000000000000000000001690634c7ababd90608401600060405180830381600087803b158015610bea57600080fd5b505af1158015610bfe573d6000803e3d6000fd5b505050505050565b600080516020610e918339815191525460020361039057604051633ee5aeb560e01b815260040160405180910390fd5b60405163a9059cbb60e01b60008181526001600160a01b038616600452602485905291602083604481808b5af192506001600051148316610c90578383151615610c83573d6000823e3d81fd5b6000873b113d1516831692505b60405250949350505050565b6040516323b872dd60e01b60008181526001600160a01b038781166004528616602452604485905291602083606481808c5af192506001600051148316610cfc578383151615610cef573d6000823e3d81fd5b6000883b113d1516831692505b60405250600060605295945050505050565b6000546001600160a01b0316336001600160a01b031614610d2f5733610287565b600080546001600160a01b038381166001600160a01b0319831681178455604051919092169283917f8be0079c531659141344cd1fd0a4f28419497f9722a3daafe3b4186f6b6457e09190a35050565b6001600160a01b038116811461062a57600080fd5b600060208284031215610da657600080fd5b8135610db181610d7f565b9392505050565b60008060408385031215610dcb57600080fd5b82359150602083013564ffffffffff81168114610de757600080fd5b809150509250929050565b600060208284031215610e0457600080fd5b5051919050565b60008060008060008060c08789031215610e2457600080fd5b8651610e2f81610d7f565b6020880151909650610e4081610d7f565b6040880151606089015160808a015160a0909a0151989b929a5090989097909650945092505050565b81810381811115610e8a57634e487b7160e01b600052601160045260246000fd5b9291505056fe9b779b17422d0df92223018b32b4d1fa46e071723d6817e2486d003becc55f00a264697066735822122076587ed7ce278f6664a177d75574e442bc16146598604e5c327f6ef140d4248164736f6c634300081e0033a26469706673582212202769b1ac6c0dfa3a0fa6533b8237c40a5f60e01022b8efedf27ca3d6189ec4ba64736f6c634300081e0033",
  "deployedBytecode": "0x6080604052600436106101145760003560e01c806383a1364a116100a0578063a681711711610064578063a6817117146103a4578063b3f0067414610429578063cde7cced1461044d578063efdcd97414610460578063f2fde38b1461048057600080fd5b806383a1364a146102c55780638da5cb5b146102f25780638ebfc796146103245780639d35187714610344578063a28a1f711461036757600080fd5b80633f6738a9116100e75780633f6738a91461020e5780634c7ababd1461022e5780634cf1115d1461024e57806360fd09891461026c5780636a5dab9f146102a557600080fd5b80630307535e1461011957806322df78d01461013b57806326f3ed2b1461016b57806336ed16e21461019f575b600080fd5b34801561012557600080fd5b50610139610134366004611410565b6104a0565b005b34801561014757600080fd5b50600054600160a01b900460ff165b60405190151581526020015b60405180910390f35b34801561017757600080fd5b50600054600160a81b900464ffffffffff1660405164ffffffffff9091168152602001610162565b3480156101ab57600080fd5b506101bf6101ba366004611447565b610575565b60408051981515895264ffffffffff90971660208901526001600160a01b0395861696880196909652939092166060860152608085015260a084015260c083015260e082015261010001610162565b34801561021a57600080fd5b50610139610229366004611464565b610633565b34801561023a57600080fd5b50610139610249366004611492565b6106a6565b34801561025a57600080fd5b50600354604051908152602001610162565b34801561027857600080fd5b506101566102873660046114ee565b6001600160a01b031660009081526005602052604090205460ff1690565b3480156102b157600080fd5b506101396102c0366004611519565b610927565b3480156102d157600080fd5b506102e56102e03660046114ee565b610966565b6040516101629190611536565b3480156102fe57600080fd5b506000546001600160a01b03165b6040516001600160a01b039091168152602001610162565b34801561033057600080fd5b5061013961033f366004611580565b610a00565b34801561035057600080fd5b5060045460405161ffff9091168152602001610162565b34801561037357600080fd5b5061030c610382366004611447565b64ffffffffff166000908152600160205260409020546001600160a01b031690565b3480156103b057600080fd5b506103c46103bf366004611447565b610a4c565b604080519a15158b5264ffffffffff998a1660208c01526001600160a01b03988916908b015295871660608a015293861660808901529190941660a087015292841660c08601529190921660e084015261010083015261012082015261014001610162565b34801561043557600080fd5b506004546201000090046001600160a01b031661030c565b61013961045b3660046115b9565b610b13565b34801561046c57600080fd5b5061013961047b3660046114ee565b610c7c565b34801561048c57600080fd5b5061013961049b3660046114ee565b610d36565b6000546001600160a01b0316336001600160a01b0316146104e757335b60405163060296c760e31b81526001600160a01b0390911660048201526024015b60405180910390fd5b61271061ffff8216111561050e57604051630b38148960e21b815260040160405180910390fd5b6004805461ffff191661ffff831690811791829055600354604080519182526020820192909252620100009092046001600160a01b0316917f63164921add8563148a9f0dba76dc04da8593cf105f95aef2a1053b57fba523e91015b60405180910390a250565b600080600080600080600080600160008a64ffffffffff1664ffffffffff16815260200190815260200160002060009054906101000a90046001600160a01b03166001600160a01b031663af74e6296040518163ffffffff1660e01b815260040161010060405180830381865afa1580156105f4573d6000803e3d6000fd5b505050506040513d601f19601f8201168201806040525081019061061891906115fb565b97509750975097509750975097509750919395975091939597565b6000546001600160a01b0316336001600160a01b03161461065457336104bd565b60038190556004546040805183815261ffff83166020820152620100009092046001600160a01b0316917f63164921add8563148a9f0dba76dc04da8593cf105f95aef2a1053b57fba523e910161056a565b64ffffffffff84166000908152600160205260409020546001600160a01b0316336001600160a01b0316146106fd57604051630db9d21960e21b815264ffffffffff851660048201523360248201526044016104de565b806001600160a01b0316826001600160a01b031614610865576001600160a01b0382166000908152600260205260408120905b8154811015610862578564ffffffffff1682828154811061075357610753611681565b90600052602060002090600691828204019190066005029054906101000a900464ffffffffff1664ffffffffff160361085a5781548290610796906001906116ad565b815481106107a6576107a6611681565b90600052602060002090600691828204019190066005029054906101000a900464ffffffffff168282815481106107df576107df611681565b90600052602060002090600691828204019190066005026101000a81548164ffffffffff021916908364ffffffffff16021790555081805480610824576108246116c6565b60019003818190600052602060002090600691828204019190066005026101000a81549064ffffffffff02191690559055610862565b600101610730565b50505b6001600160a01b0383166000908152600260205260408120905b81548110156108e4578564ffffffffff168282815481106108a2576108a2611681565b90600052602060002090600691828204019190066005029054906101000a900464ffffffffff1664ffffffffff16036108dc575050610921565b60010161087f565b5080546001810182556000918252602090912060068083049091018054919092066005026101000a64ffffffffff81810219909216918716021790555b50505050565b6000546001600160a01b0316336001600160a01b03161461094857336104bd565b60008054911515600160a01b0260ff60a01b19909216919091179055565b6001600160a01b0381166000908152600260209081526040918290208054835181840281018401909452808452606093928301828280156109f457602002820191906000526020600020906000905b82829054906101000a900464ffffffffff1664ffffffffff16815260200190600501906020826004010492830192600103820291508084116109b55790505b50505050509050919050565b6000546001600160a01b0316336001600160a01b031614610a2157336104bd565b6001600160a01b03919091166000908152600560205260409020805460ff1916911515919091179055565b600080600080600080600080600080600160008c64ffffffffff1664ffffffffff16815260200190815260200160002060009054906101000a90046001600160a01b03166001600160a01b0316634c02bf0b6040518163ffffffff1660e01b815260040161014060405180830381865afa158015610ace573d6000803e3d6000fd5b505050506040513d601f19601f82011682018060405250810190610af291906116dc565b99509950995099509950995099509950995099509193959799509193959799565b600054600160a01b900460ff16610b3d5760405163125b940760e21b815260040160405180910390fd5b610b45610d8a565b60008054600160a81b900464ffffffffff16816015610b63836117a4565b91906101000a81548164ffffffffff021916908364ffffffffff16021790555090506000610b92828686610db8565b905060003083338887604051610ba790611403565b6001600160a01b03958616815264ffffffffff94851660208201529285166040840152931660608201529116608082015260a001604051809103906000f080158015610bf7573d6000803e3d6000fd5b5064ffffffffff8416600090815260016020526040902080546001600160a01b0319166001600160a01b0383161790559050610c3f336001600160a01b038816908385610f9c565b610c4b83878684610fd2565b505050610c7760017f9b779b17422d0df92223018b32b4d1fa46e071723d6817e2486d003becc55f0055565b505050565b6000546001600160a01b0316336001600160a01b031614610c9d57336104bd565b6001600160a01b038116610cc45760405163d92e233d60e01b815260040160405180910390fd5b600480546001600160a01b038381166201000090810262010000600160b01b031984168117948590556003546040805191825261ffff92831692909516919091176020820152930416917f63164921add8563148a9f0dba76dc04da8593cf105f95aef2a1053b57fba523e910161056a565b6000546001600160a01b0316336001600160a01b031614610d5757336104bd565b6001600160a01b038116610d7e5760405163d92e233d60e01b815260040160405180910390fd5b610d87816112dc565b50565b610d9261134d565b60027f9b779b17422d0df92223018b32b4d1fa46e071723d6817e2486d003becc55f0055565b336000908152600560205260408120543415159060ff1615610dfc578015610df35760405163b000960760e01b815260040160405180910390fd5b82915050610f95565b8015610ef7576003543414610e315760035460405163082fc47b60e21b815260048101919091523460248201526044016104de565b6004546040516000916201000090046001600160a01b03169034908381818185875af1925050503d8060008114610e84576040519150601f19603f3d011682016040523d82523d6000602084013e610e89565b606091505b5050905080610eab57604051630db2c7f160e31b815260040160405180910390fd5b604080516001815234602082015264ffffffffff8816917f599e0e7458510fc6240982cbfeb3a6d640707bc3457603c774d41cbe0c96f628910160405180910390a28392505050610f95565b60045460009061271090610f0f9061ffff16866117cb565b610f1991906117e2565b9050610f2581856116ad565b92508015610f9257610f4e336004546001600160a01b0388811692916201000090041684610f9c565b60408051600081526020810183905264ffffffffff8816917f599e0e7458510fc6240982cbfeb3a6d640707bc3457603c774d41cbe0c96f628910160405180910390a25b50505b9392505050565b610faa848484846001611391565b61092157604051635274afe760e01b81526001600160a01b03851660048201526024016104de565b3360009081526002602090815260408083208054600180820183559185528385206006808304909101805492829006600590810261010090810a64ffffffffff818102199096168e8716918202179093556001600160a01b038c81168a52878a2080548089018255908b52898b20868204018054918790068502840a808902199092169186029190911790558a16808a52878a20805497880181558a5297892084870401805494909606909102810a93840219909216920291909117909155815163af74e62960e01b8152915185949384938493919263af74e629926004808401939192918290030181865afa1580156110d0573d6000803e3d6000fd5b505050506040513d601f19601f820116820180604052508101906110f491906115fb565b505050509350935050925082156111ec5760026000836001600160a01b03166001600160a01b031681526020019081526020016000208890806001815401808255809150506001900390600052602060002090600691828204019190066005029091909190916101000a81548164ffffffffff021916908364ffffffffff16021790555060026000826001600160a01b03166001600160a01b031681526020019081526020016000208890806001815401808255809150506001900390600052602060002090600691828204019190066005029091909190916101000a81548164ffffffffff021916908364ffffffffff1602179055505b806001600160a01b0316826001600160a01b0316886001600160a01b03167f531cba00a411ade37b4ca8175d92c94149f19536bd8e5a83d581aa7f040d192e8b6112333390565b6040516370a0823160e01b81526001600160a01b038b811660048301528e16906370a0823190602401602060405180830381865afa158015611279573d6000803e3d6000fd5b505050506040513d601f19601f8201168201806040525081019061129d9190611804565b6040805164ffffffffff94851681526001600160a01b039093166020840152820152908b16606082015260800160405180910390a45050505050505050565b6000546001600160a01b0316336001600160a01b0316146112fd57336104bd565b600080546001600160a01b038381166001600160a01b0319831681178455604051919092169283917f8be0079c531659141344cd1fd0a4f28419497f9722a3daafe3b4186f6b6457e09190a35050565b7f9b779b17422d0df92223018b32b4d1fa46e071723d6817e2486d003becc55f005460020361138f57604051633ee5aeb560e01b815260040160405180910390fd5b565b6040516323b872dd60e01b60008181526001600160a01b038781166004528616602452604485905291602083606481808c5af1925060016000511483166113f15783831516156113e4573d6000823e3d81fd5b6000883b113d1516831692505b60405250600060605295945050505050565b6112088061181e83390190565b60006020828403121561142257600080fd5b813561ffff81168114610f9557600080fd5b64ffffffffff81168114610d8757600080fd5b60006020828403121561145957600080fd5b8135610f9581611434565b60006020828403121561147657600080fd5b5035919050565b6001600160a01b0381168114610d8757600080fd5b600080600080608085870312156114a857600080fd5b84356114b381611434565b935060208501356114c38161147d565b925060408501356114d38161147d565b915060608501356114e38161147d565b939692955090935050565b60006020828403121561150057600080fd5b8135610f958161147d565b8015158114610d8757600080fd5b60006020828403121561152b57600080fd5b8135610f958161150b565b602080825282518282018190526000918401906040840190835b8181101561157557835164ffffffffff16835260209384019390920191600101611550565b509095945050505050565b6000806040838503121561159357600080fd5b823561159e8161147d565b915060208301356115ae8161150b565b809150509250929050565b6000806000606084860312156115ce57600080fd5b83356115d98161147d565b92506020840135915060408401356115f081611434565b809150509250925092565b600080600080600080600080610100898b03121561161857600080fd5b88516116238161150b565b60208a015190985061163481611434565b60408a01519097506116458161147d565b60608a01519096506116568161147d565b60808a015160a08b015160c08c015160e0909c01519a9d999c50979a91999098919650945092505050565b634e487b7160e01b600052603260045260246000fd5b634e487b7160e01b600052601160045260246000fd5b818103818111156116c0576116c0611697565b92915050565b634e487b7160e01b600052603160045260246000fd5b6000806000806000806000806000806101408b8d0312156116fc57600080fd5b8a516117078161150b565b60208c0151909a5061171881611434565b60408c01519099506117298161147d565b60608c015190985061173a8161147d565b60808c015190975061174b8161147d565b60a08c015190965061175c8161147d565b60c08c015190955061176d81611434565b60e08c015190945061177e81611434565b6101008c0151610120909c01519a9d999c50979a96999598949793969395939492505050565b600064ffffffffff821664ffffffffff81036117c2576117c2611697565b60010192915050565b80820281158282048414176116c0576116c0611697565b6000826117ff57634e487b7160e01b600052601260045260246000fd5b500490565b60006020828403121561181657600080fd5b505191905056fe61014060405234801561001157600080fd5b50604051611208380380611208833981016040819052610030916101f8565b600080546001600160a01b0319166001600160a01b03851690811782556040518592907f8be0079c531659141344cd1fd0a4f28419497f9722a3daafe3b4186f6b6457e0908290a35060017f9b779b17422d0df92223018b32b4d1fa46e071723d6817e2486d003becc55f00556001600160a01b0383166100c45760405163d92e233d60e01b815260040160405180910390fd5b4264ffffffffff168164ffffffffff16116100f25760405163e0aa70c960e01b815260040160405180910390fd5b6001600160a01b0385811660805264ffffffffff85811660e05283821660a081905291851660c0524281166101005260008054918416600160a01b0264ffffffffff60a01b19909216919091179055604051630f24ca7d60e01b8152600481019190915273__$f781bb3d3060cc7c00f7d655d3b188f1f9$__90630f24ca7d90602401602060405180830381865af4158015610192573d6000803e3d6000fd5b505050506040513d601f19601f820116820180604052508101906101b6919061025d565b151561012052506102869350505050565b80516001600160a01b03811681146101de57600080fd5b919050565b805164ffffffffff811681146101de57600080fd5b600080600080600060a0868803121561021057600080fd5b610219866101c7565b9450610227602087016101e3565b9350610235604087016101c7565b9250610243606087016101c7565b9150610251608087016101e3565b90509295509295909350565b60006020828403121561026f57600080fd5b8151801515811461027f57600080fd5b9392505050565b60805160a05160c05160e0516101005161012051610ee6610322600039600081816101ff01528181610394015261070d0152600061043d0152600081816103b5015281816106e60152610b3f01526000818161041a0152610b7e015260008181610329015281816103f70152818161047a0152818161053301528181610750015281816108ef0152610a0601526000610ba60152610ee66000f3fe60806040526004361061008a5760003560e01c8063a0ef91df11610059578063a0ef91df14610174578063af74e62914610189578063b05fb26f146101ed578063d88e7f4e1461022a578063f2fde38b1461024a57600080fd5b80633ccfd60b146100965780634c02bf0b146100ad578063894760691461012c5780638da5cb5b1461014c57600080fd5b3661009157005b600080fd5b3480156100a257600080fd5b506100ab61026a565b005b3480156100b957600080fd5b506100c2610392565b604080519a15158b5264ffffffffff998a1660208c01526001600160a01b03988916908b015295871660608a015293861660808901529190941660a087015292841660c08601529190921660e0840152610100830152610120820152610140015b60405180910390f35b34801561013857600080fd5b506100ab610147366004610d94565b610508565b34801561015857600080fd5b506000546040516001600160a01b039091168152602001610123565b34801561018057600080fd5b506100ab61062d565b34801561019557600080fd5b5061019e6106e2565b60408051981515895264ffffffffff90971660208901526001600160a01b0395861696880196909652939092166060860152608085015260a084015260c083015260e082015261010001610123565b3480156101f957600080fd5b506040517f000000000000000000000000000000000000000000000000000000000000000015158152602001610123565b34801561023657600080fd5b506100ab610245366004610db8565b6107f8565b34801561025657600080fd5b506100ab610265366004610d94565b610981565b6000546001600160a01b0316336001600160a01b0316146102b157335b60405163060296c760e31b81526001600160a01b0390911660048201526024015b60405180910390fd5b6102b96109d2565b60005464ffffffffff600160a01b909104811642909116101561030257600054604051632869611760e11b8152600160a01b90910464ffffffffff1660048201526024016102a8565b6103506103176000546001600160a01b031690565b61031f6109ee565b6001600160a01b037f0000000000000000000000000000000000000000000000000000000000000000169190610a7e565b6040517f75c111ce67858e12d7a8820645ab89a73cdac9c8247242a82a3ec701a230ce9b90600090a16103906001600080516020610e9183398151915255565b565b7f00000000000000000000000000000000000000000000000000000000000000007f00000000000000000000000000000000000000000000000000000000000000003060008080808080806103ef6000546001600160a01b031690565b6000549097507f000000000000000000000000000000000000000000000000000000000000000096507f000000000000000000000000000000000000000000000000000000000000000095507f00000000000000000000000000000000000000000000000000000000000000009450600160a01b900464ffffffffff1692506104766109ee565b91507f00000000000000000000000000000000000000000000000000000000000000006001600160a01b03166318160ddd6040518163ffffffff1660e01b8152600401602060405180830381865afa1580156104d6573d6000803e3d6000fd5b505050506040513d601f19601f820116820180604052508101906104fa9190610df2565b905090919293949596979899565b6000546001600160a01b0316336001600160a01b0316146105295733610287565b6105316109d2565b7f00000000000000000000000000000000000000000000000000000000000000006001600160a01b0316816001600160a01b03160361058357604051637511124760e01b815260040160405180910390fd5b806106126105996000546001600160a01b031690565b6040516370a0823160e01b81523060048201526001600160a01b038416906370a0823190602401602060405180830381865afa1580156105dd573d6000803e3d6000fd5b505050506040513d601f19601f820116820180604052508101906106019190610df2565b6001600160a01b0384169190610a7e565b5061062a6001600080516020610e9183398151915255565b50565b6000546001600160a01b0316336001600160a01b03161461064e5733610287565b6106566109d2565b600080546040516001600160a01b039091169047908381818185875af1925050503d80600081146106a3576040519150601f19603f3d011682016040523d82523d6000602084013e6106a8565b606091505b50509050806106ca57604051630db2c7f160e31b815260040160405180910390fd5b506103906001600080516020610e9183398151915255565b60007f00000000000000000000000000000000000000000000000000000000000000008180808080807f000000000000000000000000000000000000000000000000000000000000000061073957600097506107ee565b604051632590dc9d60e01b81526001600160a01b037f000000000000000000000000000000000000000000000000000000000000000016600482015273__$f781bb3d3060cc7c00f7d655d3b188f1f9$__90632590dc9d9060240160c060405180830381865af49250505080156107cd575060408051601f3d908101601f191682019092526107ca91810190610e0b565b60015b6107da57600097506107ee565b60019d50949a509298509096509450925090505b9091929394959697565b6000546001600160a01b0316336001600160a01b0316146108195733610287565b6108216109d2565b64ffffffffff8116156108d85760005464ffffffffff600160a01b9091048116908216108061085d57504264ffffffffff168164ffffffffff16105b1561087b57604051631f63445360e21b815260040160405180910390fd5b6000805464ffffffffff60a01b1916600160a01b64ffffffffff8481168202929092179283905560405192041681527f1cec69e52d87e8682b625bef9852ff9165537aac445d87a70aae8e6d506b4ca69060200160405180910390a15b81156109665760006108e86109ee565b905061091f7f00000000000000000000000000000000000000000000000000000000000000006001600160a01b0316333086610ab8565b7f77acf75e237f9aae98f997395832d522bdb695e4a9bd07704936aa889a3667d1816109496109ee565b6109539190610e69565b60405190815260200160405180910390a1505b61097d6001600080516020610e9183398151915255565b5050565b6000546001600160a01b0316336001600160a01b0316146109a25733610287565b6001600160a01b0381166109c95760405163d92e233d60e01b815260040160405180910390fd5b61062a81610af4565b6109da610c06565b6002600080516020610e9183398151915255565b6040516370a0823160e01b81523060048201526000907f00000000000000000000000000000000000000000000000000000000000000006001600160a01b0316906370a0823190602401602060405180830381865afa158015610a55573d6000803e3d6000fd5b505050506040513d601f19601f82011682018060405250810190610a799190610df2565b905090565b610a8b8383836001610c36565b610ab357604051635274afe760e01b81526001600160a01b03841660048201526024016102a8565b505050565b610ac6848484846001610c9c565b610aee57604051635274afe760e01b81526001600160a01b03851660048201526024016102a8565b50505050565b6000546001600160a01b0316336001600160a01b031614610b155733610287565b6000546001600160a01b0316610b2a82610d0e565b604051634c7ababd60e01b815264ffffffffff7f00000000000000000000000000000000000000000000000000000000000000001660048201526001600160a01b03838116602483015282811660448301527f0000000000000000000000000000000000000000000000000000000000000000811660648301527f00000000000000000000000000000000000000000000000000000000000000001690634c7ababd90608401600060405180830381600087803b158015610bea57600080fd5b505af1158015610bfe573d6000803e3d6000fd5b505050505050565b600080516020610e918339815191525460020361039057604051633ee5aeb560e01b815260040160405180910390fd5b60405163a9059cbb60e01b60008181526001600160a01b038616600452602485905291602083604481808b5af192506001600051148316610c90578383151615610c83573d6000823e3d81fd5b6000873b113d1516831692505b60405250949350505050565b6040516323b872dd60e01b60008181526001600160a01b038781166004528616602452604485905291602083606481808c5af192506001600051148316610cfc578383151615610cef573d6000823e3d81fd5b6000883b113d1516831692505b60405250600060605295945050505050565b6000546001600160a01b0316336001600160a01b031614610d2f5733610287565b600080546001600160a01b038381166001600160a01b0319831681178455604051919092169283917f8be0079c531659141344cd1fd0a4f28419497f9722a3daafe3b4186f6b6457e09190a35050565b6001600160a01b038116811461062a57600080fd5b600060208284031215610da657600080fd5b8135610db181610d7f565b9392505050565b60008060408385031215610dcb57600080fd5b82359150602083013564ffffffffff81168114610de757600080fd5b809150509250929050565b600060208284031215610e0457600080fd5b5051919050565b60008060008060008060c08789031215610e2457600080fd5b8651610e2f81610d7f565b6020880151909650610e4081610d7f565b6040880151606089015160808a015160a0909a0151989b929a5090989097909650945092505050565b81810381811115610e8a57634e487b7160e01b600052601160045260246000fd5b9291505056fe9b779b17422d0df92223018b32b4d1fa46e071723d6817e2486d003becc55f00a264697066735822122076587ed7ce278f6664a177d75574e442bc16146598604e5c327f6ef140d4248164736f6c634300081e0033a26469706673582212202769b1ac6c0dfa3a0fa6533b8237c40a5f60e01022b8efedf27ca3d6189ec4ba64736f6c634300081e0033",
  "libraries": {
    "Util": "0x772279251b563028a32cD1505e3F2f8485C746D9"
  },
  "devdoc": {
    "errors": {
      "ReentrancyGuardReentrantCall()": [
        {
          "details": "Unauthorized reentrant call."
        }
      ],
      "SafeERC20FailedOperation(address)": [
        {
          "details": "An operation with an ERC-20 token failed."
        }
      ]
    },
    "kind": "dev",
    "methods": {
      "createTokenLocker(address,uint256,uint40)": {
        "details": "Two ways to pay the creation fee: send `ethFee()` wei with the call to lock 100% of `amount_`, or send 0 wei and have `tokenFeeBps()` deducted from `amount_` in the locked token itself."
      },
      "notifyLockerOwnerChange(uint40,address,address,address)": {
        "details": "Called by a `TitanLockerV1` whenever its ownership changes, so the search index above stays accurate."
      },
      "setCreationEnabled(bool)": {
        "details": "Turns off new locks so users can be migrated to a future version. Existing locks can still be extended/deposited/withdrawn as normal."
      },
      "transferOwnership(address)": {
        "details": "Reverts on a zero-address target so ownership can never be bricked by accident; there is deliberately no \"renounce ownership\" escape hatch."
      }
    },
    "stateVariables": {
      "_tokenLockersForAddress": {
        "details": "Lets the frontend search lockers by creator, locked token, locker address, or (for LP tokens) either underlying paired token."
      }
    },
    "version": 1
  },
  "userdoc": {
    "kind": "user",
    "methods": {},
    "notice": "Deploys and indexes `TitanLockerV1` instances. Charges a creation fee that the caller may pay either in ETH (locking 100% of the deposit) or by letting a percentage of the deposited token itself be taken as the fee.",
    "version": 1
  },
  "storageLayout": {
    "storage": [
      {
        "astId": 1776,
        "contract": "contracts/TitanLockerManagerV1.sol:TitanLockerManagerV1",
        "label": "_currentOwner",
        "offset": 0,
        "slot": "0",
        "type": "t_address"
      },
      {
        "astId": 1920,
        "contract": "contracts/TitanLockerManagerV1.sol:TitanLockerManagerV1",
        "label": "_creationEnabled",
        "offset": 20,
        "slot": "0",
        "type": "t_bool"
      },
      {
        "astId": 1922,
        "contract": "contracts/TitanLockerManagerV1.sol:TitanLockerManagerV1",
        "label": "_tokenLockerCount",
        "offset": 21,
        "slot": "0",
        "type": "t_uint40"
      },
      {
        "astId": 1927,
        "contract": "contracts/TitanLockerManagerV1.sol:TitanLockerManagerV1",
        "label": "_tokenLockers",
        "offset": 0,
        "slot": "1",
        "type": "t_mapping(t_uint40,t_contract(TitanLockerV1)3167)"
      },
      {
        "astId": 1933,
        "contract": "contracts/TitanLockerManagerV1.sol:TitanLockerManagerV1",
        "label": "_tokenLockersForAddress",
        "offset": 0,
        "slot": "2",
        "type": "t_mapping(t_address,t_array(t_uint40)dyn_storage)"
      },
      {
        "astId": 1935,
        "contract": "contracts/TitanLockerManagerV1.sol:TitanLockerManagerV1",
        "label": "_ethFee",
        "offset": 0,
        "slot": "3",
        "type": "t_uint256"
      },
      {
        "astId": 1937,
        "contract": "contracts/TitanLockerManagerV1.sol:TitanLockerManagerV1",
        "label": "_tokenFeeBps",
        "offset": 0,
        "slot": "4",
        "type": "t_uint16"
      },
      {
        "astId": 1939,
        "contract": "contracts/TitanLockerManagerV1.sol:TitanLockerManagerV1",
        "label": "_feeReceiver",
        "offset": 2,
        "slot": "4",
        "type": "t_address_payable"
      },
      {
        "astId": 1943,
        "contract": "contracts/TitanLockerManagerV1.sol:TitanLockerManagerV1",
        "label": "_feeExempt",
        "offset": 0,
        "slot": "5",
        "type": "t_mapping(t_address,t_bool)"
      }
    ],
    "types": {
      "t_address": {
        "encoding": "inplace",
        "label": "address",
        "numberOfBytes": "20"
      },
      "t_address_payable": {
        "encoding": "inplace",
        "label": "address payable",
        "numberOfBytes": "20"
      },
      "t_array(t_uint40)dyn_storage": {
        "base": "t_uint40",
        "encoding": "dynamic_array",
        "label": "uint40[]",
        "numberOfBytes": "32"
      },
      "t_bool": {
        "encoding": "inplace",
        "label": "bool",
        "numberOfBytes": "1"
      },
      "t_contract(TitanLockerV1)3167": {
        "encoding": "inplace",
        "label": "contract TitanLockerV1",
        "numberOfBytes": "20"
      },
      "t_mapping(t_address,t_array(t_uint40)dyn_storage)": {
        "encoding": "mapping",
        "key": "t_address",
        "label": "mapping(address => uint40[])",
        "numberOfBytes": "32",
        "value": "t_array(t_uint40)dyn_storage"
      },
      "t_mapping(t_address,t_bool)": {
        "encoding": "mapping",
        "key": "t_address",
        "label": "mapping(address => bool)",
        "numberOfBytes": "32",
        "value": "t_bool"
      },
      "t_mapping(t_uint40,t_contract(TitanLockerV1)3167)": {
        "encoding": "mapping",
        "key": "t_uint40",
        "label": "mapping(uint40 => contract TitanLockerV1)",
        "numberOfBytes": "32",
        "value": "t_contract(TitanLockerV1)3167"
      },
      "t_uint16": {
        "encoding": "inplace",
        "label": "uint16",
        "numberOfBytes": "2"
      },
      "t_uint256": {
        "encoding": "inplace",
        "label": "uint256",
        "numberOfBytes": "32"
      },
      "t_uint40": {
        "encoding": "inplace",
        "label": "uint40",
        "numberOfBytes": "5"
      }
    }
  }
}