{
  "address": "0xFBfa1ce526f98deC2251D44d1DaF7c599223aFe6",
  "abi": [
    {
      "inputs": [
        {
          "internalType": "address",
          "name": "pairAddress_",
          "type": "address"
        }
      ],
      "name": "getLpData",
      "outputs": [
        {
          "internalType": "address",
          "name": "token0",
          "type": "address"
        },
        {
          "internalType": "address",
          "name": "token1",
          "type": "address"
        },
        {
          "internalType": "uint256",
          "name": "balance0",
          "type": "uint256"
        },
        {
          "internalType": "uint256",
          "name": "balance1",
          "type": "uint256"
        },
        {
          "internalType": "uint256",
          "name": "price0",
          "type": "uint256"
        },
        {
          "internalType": "uint256",
          "name": "price1",
          "type": "uint256"
        }
      ],
      "stateMutability": "view",
      "type": "function"
    },
    {
      "inputs": [
        {
          "internalType": "address",
          "name": "tokenAddress_",
          "type": "address"
        }
      ],
      "name": "getTokenData",
      "outputs": [
        {
          "internalType": "string",
          "name": "name",
          "type": "string"
        },
        {
          "internalType": "string",
          "name": "symbol",
          "type": "string"
        },
        {
          "internalType": "uint8",
          "name": "decimals",
          "type": "uint8"
        },
        {
          "internalType": "uint256",
          "name": "totalSupply",
          "type": "uint256"
        },
        {
          "internalType": "uint256",
          "name": "balance",
          "type": "uint256"
        }
      ],
      "stateMutability": "view",
      "type": "function"
    },
    {
      "inputs": [
        {
          "internalType": "address",
          "name": "tokenAddress_",
          "type": "address"
        }
      ],
      "name": "isLpToken",
      "outputs": [
        {
          "internalType": "bool",
          "name": "",
          "type": "bool"
        }
      ],
      "stateMutability": "view",
      "type": "function"
    }
  ],
  "transactionHash": "0x0b883570dcbaed14cfa2f7561106e6f7a552efa38e7808486d25d3820962135c",
  "args": [],
  "numDeployments": 2,
  "solcInputHash": "354a05b09a99ca544a36cdd4f1479b5a",
  "bytecode": "0x610829610039600b82828239805160001a607314602c57634e487b7160e01b600052600060045260246000fd5b30600052607381538281f3fe730000000000000000000000000000000000000000301460806040526004361061004b5760003560e01c80630f24ca7d1461005057806313ff7e9f146100785780632590dc9d1461009c575b600080fd5b61006361005e366004610615565b6100e7565b60405190151581526020015b60405180910390f35b61008b610086366004610615565b610160565b60405161006f959493929190610689565b6100af6100aa366004610615565b610379565b604080516001600160a01b039788168152969095166020870152938501929092526060840152608083015260a082015260c00161006f565b6000816001600160a01b0316630dfe16816040518163ffffffff1660e01b8152600401602060405180830381865afa925050508015610143575060408051601f3d908101601f19168201909252610140918101906106cf565b60015b61014f57506000919050565b6001600160a01b0316151592915050565b606080600080600080869050806001600160a01b03166306fdde036040518163ffffffff1660e01b8152600401600060405180830381865afa1580156101aa573d6000803e3d6000fd5b505050506040513d6000823e601f3d908101601f191682016040526101d29190810190610702565b9550806001600160a01b03166395d89b416040518163ffffffff1660e01b8152600401600060405180830381865afa158015610212573d6000803e3d6000fd5b505050506040513d6000823e601f3d908101601f1916820160405261023a9190810190610702565b9450806001600160a01b031663313ce5676040518163ffffffff1660e01b8152600401602060405180830381865afa15801561027a573d6000803e3d6000fd5b505050506040513d601f19601f8201168201806040525081019061029e91906107b7565b9350806001600160a01b03166318160ddd6040518163ffffffff1660e01b8152600401602060405180830381865afa1580156102de573d6000803e3d6000fd5b505050506040513d601f19601f8201168201806040525081019061030291906107da565b6040516370a0823160e01b81523360048201529093506001600160a01b038216906370a0823190602401602060405180830381865afa158015610349573d6000803e3d6000fd5b505050506040513d601f19601f8201168201806040525081019061036d91906107da565b91505091939590929450565b6000806000806000806000879050806001600160a01b0316630dfe16816040518163ffffffff1660e01b8152600401602060405180830381865afa1580156103c5573d6000803e3d6000fd5b505050506040513d601f19601f820116820180604052508101906103e991906106cf565b9650806001600160a01b031663d21220a76040518163ffffffff1660e01b8152600401602060405180830381865afa158015610429573d6000803e3d6000fd5b505050506040513d601f19601f8201168201806040525081019061044d91906106cf565b6040516370a0823160e01b81526001600160a01b038a81166004830152919750908816906370a0823190602401602060405180830381865afa158015610497573d6000803e3d6000fd5b505050506040513d601f19601f820116820180604052508101906104bb91906107da565b6040516370a0823160e01b81526001600160a01b038a81166004830152919650908716906370a0823190602401602060405180830381865afa158015610505573d6000803e3d6000fd5b505050506040513d601f19601f8201168201806040525081019061052991906107da565b9350806001600160a01b0316635909c0d56040518163ffffffff1660e01b8152600401602060405180830381865afa158015610569573d6000803e3d6000fd5b505050506040513d601f19601f8201168201806040525081019061058d91906107da565b9250806001600160a01b0316635a3d54936040518163ffffffff1660e01b8152600401602060405180830381865afa1580156105cd573d6000803e3d6000fd5b505050506040513d601f19601f820116820180604052508101906105f191906107da565b91505091939550919395565b6001600160a01b038116811461061257600080fd5b50565b60006020828403121561062757600080fd5b8135610632816105fd565b9392505050565b60005b8381101561065457818101518382015260200161063c565b50506000910152565b60008151808452610675816020860160208601610639565b601f01601f19169290920160200192915050565b60a08152600061069c60a083018861065d565b82810360208401526106ae818861065d565b60ff9690961660408401525050606081019290925260809091015292915050565b6000602082840312156106e157600080fd5b8151610632816105fd565b634e487b7160e01b600052604160045260246000fd5b60006020828403121561071457600080fd5b815167ffffffffffffffff81111561072b57600080fd5b8201601f8101841361073c57600080fd5b805167ffffffffffffffff811115610756576107566106ec565b604051601f8201601f19908116603f0116810167ffffffffffffffff81118282101715610785576107856106ec565b60405281815282820160200186101561079d57600080fd5b6107ae826020830160208601610639565b95945050505050565b6000602082840312156107c957600080fd5b815160ff8116811461063257600080fd5b6000602082840312156107ec57600080fd5b505191905056fea26469706673582212209a07c6d1e7c56f9ba05245bcd55ad361a655e25c485c19f17b2f1738b5350a5864736f6c634300081e0033",
  "devdoc": {
    "kind": "dev",
    "methods": {
      "getLpData(address)": {
        "details": "Reverts if `pairAddress_` isn't actually an LP pair - callers should gate this behind `isLpToken` first unless they want that revert."
      },
      "getTokenData(address)": {
        "details": "Pulls the standard ERC20 metadata plus the caller's balance in one call."
      },
      "isLpToken(address)": {
        "details": "Best-effort detection of a Uniswap-V2-style LP pair: a real pair exposes `token0()`; anything else (a plain ERC20, an EOA, etc.) reverts, which we treat as \"not an LP token\" rather than letting the call fail."
      }
    },
    "version": 1
  },
  "userdoc": {
    "kind": "user",
    "methods": {},
    "version": 1
  },
  "storageLayout": {
    "storage": [],
    "types": null
  }
}